{
  "contractName": "AltBn128",
  "abi": [
    {
      "constant": true,
      "inputs": [],
      "name": "A",
      "outputs": [
        {
          "internalType": "uint256",
          "name": "",
          "type": "uint256"
        }
      ],
      "payable": false,
      "stateMutability": "view",
      "type": "function"
    },
    {
      "constant": true,
      "inputs": [],
      "name": "G1x",
      "outputs": [
        {
          "internalType": "uint256",
          "name": "",
          "type": "uint256"
        }
      ],
      "payable": false,
      "stateMutability": "view",
      "type": "function"
    },
    {
      "constant": true,
      "inputs": [],
      "name": "G1y",
      "outputs": [
        {
          "internalType": "uint256",
          "name": "",
          "type": "uint256"
        }
      ],
      "payable": false,
      "stateMutability": "view",
      "type": "function"
    },
    {
      "constant": true,
      "inputs": [],
      "name": "N",
      "outputs": [
        {
          "internalType": "uint256",
          "name": "",
          "type": "uint256"
        }
      ],
      "payable": false,
      "stateMutability": "view",
      "type": "function"
    },
    {
      "constant": true,
      "inputs": [],
      "name": "P",
      "outputs": [
        {
          "internalType": "uint256",
          "name": "",
          "type": "uint256"
        }
      ],
      "payable": false,
      "stateMutability": "view",
      "type": "function"
    },
    {
      "constant": true,
      "inputs": [
        {
          "internalType": "uint256[2]",
          "name": "p0",
          "type": "uint256[2]"
        },
        {
          "internalType": "uint256[2]",
          "name": "p1",
          "type": "uint256[2]"
        }
      ],
      "name": "ecAdd",
      "outputs": [
        {
          "internalType": "uint256[2]",
          "name": "retP",
          "type": "uint256[2]"
        }
      ],
      "payable": false,
      "stateMutability": "view",
      "type": "function"
    },
    {
      "constant": true,
      "inputs": [
        {
          "internalType": "uint256[2]",
          "name": "p",
          "type": "uint256[2]"
        },
        {
          "internalType": "uint256",
          "name": "s",
          "type": "uint256"
        }
      ],
      "name": "ecMul",
      "outputs": [
        {
          "internalType": "uint256[2]",
          "name": "retP",
          "type": "uint256[2]"
        }
      ],
      "payable": false,
      "stateMutability": "view",
      "type": "function"
    },
    {
      "constant": true,
      "inputs": [
        {
          "internalType": "uint256",
          "name": "s",
          "type": "uint256"
        }
      ],
      "name": "ecMulG",
      "outputs": [
        {
          "internalType": "uint256[2]",
          "name": "retP",
          "type": "uint256[2]"
        }
      ],
      "payable": false,
      "stateMutability": "view",
      "type": "function"
    },
    {
      "constant": true,
      "inputs": [
        {
          "internalType": "uint256",
          "name": "base",
          "type": "uint256"
        },
        {
          "internalType": "uint256",
          "name": "e",
          "type": "uint256"
        },
        {
          "internalType": "uint256",
          "name": "m",
          "type": "uint256"
        }
      ],
      "name": "powmod",
      "outputs": [
        {
          "internalType": "uint256",
          "name": "o",
          "type": "uint256"
        }
      ],
      "payable": false,
      "stateMutability": "view",
      "type": "function"
    },
    {
      "constant": true,
      "inputs": [
        {
          "internalType": "uint256",
          "name": "x",
          "type": "uint256"
        },
        {
          "internalType": "uint256",
          "name": "n",
          "type": "uint256"
        }
      ],
      "name": "addmodn",
      "outputs": [
        {
          "internalType": "uint256",
          "name": "",
          "type": "uint256"
        }
      ],
      "payable": false,
      "stateMutability": "pure",
      "type": "function"
    },
    {
      "constant": true,
      "inputs": [
        {
          "internalType": "uint256",
          "name": "x",
          "type": "uint256"
        }
      ],
      "name": "modn",
      "outputs": [
        {
          "internalType": "uint256",
          "name": "",
          "type": "uint256"
        }
      ],
      "payable": false,
      "stateMutability": "pure",
      "type": "function"
    },
    {
      "constant": true,
      "inputs": [
        {
          "internalType": "uint256",
          "name": "x",
          "type": "uint256"
        },
        {
          "internalType": "uint256",
          "name": "y",
          "type": "uint256"
        }
      ],
      "name": "onCurve",
      "outputs": [
        {
          "internalType": "bool",
          "name": "",
          "type": "bool"
        }
      ],
      "payable": false,
      "stateMutability": "pure",
      "type": "function"
    },
    {
      "constant": true,
      "inputs": [
        {
          "internalType": "uint256",
          "name": "beta",
          "type": "uint256"
        },
        {
          "internalType": "uint256",
          "name": "y",
          "type": "uint256"
        }
      ],
      "name": "onCurveBeta",
      "outputs": [
        {
          "internalType": "bool",
          "name": "",
          "type": "bool"
        }
      ],
      "payable": false,
      "stateMutability": "pure",
      "type": "function"
    },
    {
      "constant": true,
      "inputs": [
        {
          "internalType": "uint256",
          "name": "x",
          "type": "uint256"
        }
      ],
      "name": "evalCurve",
      "outputs": [
        {
          "internalType": "uint256",
          "name": "",
          "type": "uint256"
        },
        {
          "internalType": "uint256",
          "name": "",
          "type": "uint256"
        }
      ],
      "payable": false,
      "stateMutability": "view",
      "type": "function"
    }
  ],
  "bytecode": "0x610a0e610026600b82828239805160001a60731461001957fe5b30600052607381538281f3fe73000000000000000000000000000000000000000030146080604052600436106100f45760003560e01c8063a1807b9c11610096578063c690219b11610070578063c690219b14610482578063c9e525df146104cb578063e76ee242146104e9578063f446c1d014610535576100f4565b8063a1807b9c14610364578063a867d0ca14610382578063b93af8e014610464576100f4565b8063669d9448116100d2578063669d9448146101fb57806371de37241461024b57806381dd69fe146102f65780638b8fbd9214610346576100f4565b8063309ef832146100f957806345c373181461014f5780634f06f279146101b9575b600080fd5b6101396004803603606081101561010f57600080fd5b81019080803590602001909291908035906020019092919080359060200190929190505050610553565b6040518082815260200191505060405180910390f35b61017b6004803603602081101561016557600080fd5b81019080803590602001909291905050506105aa565b6040518082600260200280838360005b838110156101a657808201518184015260208101905061018b565b5050505090500191505060405180910390f35b6101e5600480360360208110156101cf57600080fd5b81019080803590602001909291905050506105d9565b6040518082815260200191505060405180910390f35b6102316004803603604081101561021157600080fd5b81019080803590602001909291908035906020019092919050505061060c565b604051808215151515815260200191505060405180910390f35b6102b86004803603606081101561026157600080fd5b8101908080604001906002806020026040519081016040528092919082600260200280828437600081840152601f19601f8201169050808301925050505050509192919290803590602001909291905050506106aa565b6040518082600260200280838360005b838110156102e35780820151818401526020810190506102c8565b5050505090500191505060405180910390f35b61032c6004803603604081101561030c57600080fd5b810190808035906020019092919080359060200190929190505050610715565b604051808215151515815260200191505060405180910390f35b61034e61074c565b6040518082815260200191505060405180910390f35b61036c610770565b6040518082815260200191505060405180910390f35b6104266004803603608081101561039857600080fd5b8101908080604001906002806020026040519081016040528092919082600260200280828437600081840152601f19601f820116905080830192505050505050919291929080604001906002806020026040519081016040528092919082600260200280828437600081840152601f19601f8201169050808301925050505050509192919290505050610775565b6040518082600260200280838360005b83811015610451578082015181840152602081019050610436565b5050505090500191505060405180910390f35b61046c610808565b6040518082815260200191505060405180910390f35b6104ae6004803603602081101561049857600080fd5b810190808035906020019092919050505061080d565b604051808381526020018281526020019250505060405180910390f35b6104d36108f6565b6040518082815260200191505060405180910390f35b61051f600480360360408110156104ff57600080fd5b81019080803590602001909291908035906020019092919050505061091a565b6040518082815260200191505060405180910390f35b61053d61094f565b6040518082815260200191505060405180910390f35b600060405160208152602080820152602060408201528460608201528360808201528260a082015260208160c08360056107d05a03fa80600081146105975761059c565b600080fd5b508151925050509392505050565b6105b2610973565b6105d26040518060400160405280600181526020016002815250836106aa565b9050919050565b60007f30644e72e131a029b85045b68181585d2833e84879b9709143e1f593f0000001828161060457fe5b069050919050565b6000807f30644e72e131a029b85045b68181585d97816a916871ca8d3c208c16d87cfd478061063757fe5b84850990507f30644e72e131a029b85045b68181585d97816a916871ca8d3c208c16d87cfd478061066457fe5b84820990507f30644e72e131a029b85045b68181585d97816a916871ca8d3c208c16d87cfd478061069157fe5b6003820890506106a18184610715565b91505092915050565b6106b2610973565b6106ba610995565b6040518060600160405280856000600281106106d257fe5b60200201518152602001856001600281106106e957fe5b602002015181526020018481525090506040826060836007600019fa61070e57600080fd5b5092915050565b60007f30644e72e131a029b85045b68181585d97816a916871ca8d3c208c16d87cfd478061073f57fe5b8283098314905092915050565b7f30644e72e131a029b85045b68181585d97816a916871ca8d3c208c16d87cfd4781565b600281565b61077d610973565b6107856109b7565b60405180608001604052808560006002811061079d57fe5b60200201518152602001856001600281106107b457fe5b60200201518152602001846000600281106107cb57fe5b60200201518152602001846001600281106107e257fe5b602002015181525090506040826080836006600019fa61080157600080fd5b5092915050565b600181565b60008060007f30644e72e131a029b85045b68181585d97816a916871ca8d3c208c16d87cfd478061083a57fe5b84850990507f30644e72e131a029b85045b68181585d97816a916871ca8d3c208c16d87cfd478061086757fe5b84820990507f30644e72e131a029b85045b68181585d97816a916871ca8d3c208c16d87cfd478061089457fe5b60038208905060006108e7827f0c19139cb84c680a6e14116da060561765e05aa45a1c72a34f082305b61f3f527f30644e72e131a029b85045b68181585d97816a916871ca8d3c208c16d87cfd47610553565b90508181935093505050915091565b7f30644e72e131a029b85045b68181585d2833e84879b9709143e1f593f000000181565b60007f30644e72e131a029b85045b68181585d2833e84879b9709143e1f593f00000018061094457fe5b828408905092915050565b7f0c19139cb84c680a6e14116da060561765e05aa45a1c72a34f082305b61f3f5281565b6040518060400160405280600290602082028038833980820191505090505090565b6040518060600160405280600390602082028038833980820191505090505090565b604051806080016040528060049060208202803883398082019150509050509056fea265627a7a72315820e5c9e7f9fb38b695308181055a903a9d5625a90bb96bd68dd24335062077319564736f6c63430005110032",
  "source": "pragma solidity >=0.5.0 <0.6.0;\r\n\r\n/**\r\n * Heavily referenced from https://github.com/ethereum/py_ecc/blob/master/py_ecc/bn128/bn128_curve.py\r\n*/\r\n\r\nlibrary AltBn128 {\r\n    uint256 constant public G1x = uint256(0x01);\r\n    uint256 constant public G1y = uint256(0x02);\r\n\r\n    // Number of elements in the field (often called `q`)\r\n    // n = n(u) = 36u^4 + 36u^3 + 18u^2 + 6u + 1\r\n    uint256 constant public N = 0x30644e72e131a029b85045b68181585d2833e84879b9709143e1f593f0000001;\r\n\r\n    // p = p(u) = 36u^4 + 36u^3 + 24u^2 + 6u + 1\r\n    // Field Order\r\n    uint256 constant public P = 0x30644e72e131a029b85045b68181585d97816a916871ca8d3c208c16d87cfd47;\r\n\r\n    // (p+1) / 4\r\n    uint256 constant public A = 0xc19139cb84c680a6e14116da060561765e05aa45a1c72a34f082305b61f3f52;\r\n\r\n    /* ECC Functions */\r\n    function ecAdd(uint256[2] memory p0, uint256[2] memory p1) public view\r\n    returns (uint256[2] memory retP)\r\n    {\r\n        uint256[4] memory i = [p0[0], p0[1], p1[0], p1[1]];\r\n\r\n        assembly {\r\n        // call ecadd precompile\r\n        // inputs are: x1, y1, x2, y2\r\n            if iszero(staticcall(not(0), 0x06, i, 0x80, retP, 0x40)) {\r\n                revert(0, 0)\r\n            }\r\n        }\r\n    }\r\n\r\n    function ecMul(uint256[2] memory p, uint256 s) public view\r\n    returns (uint256[2] memory retP)\r\n    {\r\n        // With a public key (x, y), this computes p = scalar * (x, y).\r\n        uint256[3] memory i = [p[0], p[1], s];\r\n\r\n        assembly {\r\n        // call ecmul precompile\r\n        // inputs are: x, y, scalar\r\n            if iszero(staticcall(not(0), 0x07, i, 0x60, retP, 0x40)) {\r\n                revert(0, 0)\r\n            }\r\n        }\r\n    }\r\n\r\n    function ecMulG(uint256 s) public view\r\n    returns (uint256[2] memory retP)\r\n    {\r\n        return ecMul([G1x, G1y], s);\r\n    }\r\n\r\n    function powmod(uint256 base, uint256 e, uint256 m) public view\r\n    returns (uint256 o)\r\n    {\r\n        // returns pow(base, e) % m\r\n        assembly {\r\n        // define pointer\r\n            let p := mload(0x40)\r\n\r\n        // Store data assembly-favouring ways\r\n            mstore(p, 0x20)             // Length of Base\r\n            mstore(add(p, 0x20), 0x20)  // Length of Exponent\r\n            mstore(add(p, 0x40), 0x20)  // Length of Modulus\r\n            mstore(add(p, 0x60), base)  // Base\r\n            mstore(add(p, 0x80), e)     // Exponent\r\n            mstore(add(p, 0xa0), m)     // Modulus\r\n\r\n        // call modexp precompile! -- old school gas handling\r\n            let success := staticcall(sub(gas, 2000), 0x05, p, 0xc0, p, 0x20)\r\n\r\n        // gas fiddling\r\n            switch success case 0 {\r\n                revert(0, 0)\r\n            }\r\n\r\n        // data\r\n            o := mload(p)\r\n        }\r\n    }\r\n\r\n    // Keep everything contained within this lib\r\n    function addmodn(uint256 x, uint256 n) public pure\r\n    returns (uint256)\r\n    {\r\n        return addmod(x, n, N);\r\n    }\r\n\r\n    function modn(uint256 x) public pure\r\n    returns (uint256)\r\n    {\r\n        return x % N;\r\n    }\r\n\r\n    /*\r\n       Checks if the points x, y exists on alt_bn_128 curve\r\n    */\r\n    function onCurve(uint256 x, uint256 y) public pure\r\n    returns(bool)\r\n    {\r\n        uint256 beta = mulmod(x, x, P);\r\n        beta = mulmod(beta, x, P);\r\n        beta = addmod(beta, 3, P);\r\n\r\n        return onCurveBeta(beta, y);\r\n    }\r\n\r\n    function onCurveBeta(uint256 beta, uint256 y) public pure\r\n    returns(bool)\r\n    {\r\n        return beta == mulmod(y, y, P);\r\n    }\r\n\r\n    /*\r\n    * Calculates point y value given x\r\n    */\r\n    function evalCurve(uint256 x) public view\r\n    returns (uint256, uint256)\r\n    {\r\n        uint256 beta = mulmod(x, x, P);\r\n        beta = mulmod(beta, x, P);\r\n        beta = addmod(beta, 3, P);\r\n\r\n        uint256 y = powmod(beta, A, P);\r\n\r\n        // require(beta == mulmod(y, y, P), \"Invalid x for evalCurve\");\r\n        return (beta, y);\r\n    }\r\n}",
  "sourcePath": "E:\\RingTest\\contracts\\AltBn128.sol",
  "compiler": {
    "name": "solc",
    "version": "0.5.17+commit.d19bba13.Emscripten.clang"
  },
  "schemaVersion": "3.4.4",
  "updatedAt": "2021-12-31T08:19:46.281Z",
  "devdoc": {
    "methods": {}
  },
  "userdoc": {
    "methods": {},
    "notice": "Heavily referenced from https://github.com/ethereum/py_ecc/blob/master/py_ecc/bn128/bn128_curve.py"
  }
}