{
  "contractName": "LSAG",
  "abi": [
    {
      "constant": true,
      "inputs": [
        {
          "internalType": "uint256",
          "name": "_x",
          "type": "uint256"
        }
      ],
      "name": "intToPoint",
      "outputs": [
        {
          "internalType": "uint256[2]",
          "name": "",
          "type": "uint256[2]"
        }
      ],
      "payable": false,
      "stateMutability": "view",
      "type": "function"
    },
    {
      "constant": true,
      "inputs": [
        {
          "internalType": "bytes",
          "name": "b",
          "type": "bytes"
        }
      ],
      "name": "H1",
      "outputs": [
        {
          "internalType": "uint256",
          "name": "",
          "type": "uint256"
        }
      ],
      "payable": false,
      "stateMutability": "pure",
      "type": "function"
    },
    {
      "constant": true,
      "inputs": [
        {
          "internalType": "bytes",
          "name": "b",
          "type": "bytes"
        }
      ],
      "name": "H2",
      "outputs": [
        {
          "internalType": "uint256[2]",
          "name": "",
          "type": "uint256[2]"
        }
      ],
      "payable": false,
      "stateMutability": "view",
      "type": "function"
    },
    {
      "constant": true,
      "inputs": [
        {
          "internalType": "uint256[2]",
          "name": "pubKey",
          "type": "uint256[2]"
        },
        {
          "internalType": "uint256",
          "name": "c",
          "type": "uint256"
        },
        {
          "internalType": "uint256",
          "name": "s",
          "type": "uint256"
        }
      ],
      "name": "ringCalcZ1",
      "outputs": [
        {
          "internalType": "uint256[2]",
          "name": "",
          "type": "uint256[2]"
        }
      ],
      "payable": false,
      "stateMutability": "view",
      "type": "function"
    },
    {
      "constant": true,
      "inputs": [
        {
          "internalType": "uint256[2]",
          "name": "keyImage",
          "type": "uint256[2]"
        },
        {
          "internalType": "uint256[2]",
          "name": "h",
          "type": "uint256[2]"
        },
        {
          "internalType": "uint256",
          "name": "s",
          "type": "uint256"
        },
        {
          "internalType": "uint256",
          "name": "c",
          "type": "uint256"
        }
      ],
      "name": "ringCalcZ2",
      "outputs": [
        {
          "internalType": "uint256[2]",
          "name": "",
          "type": "uint256[2]"
        }
      ],
      "payable": false,
      "stateMutability": "view",
      "type": "function"
    },
    {
      "constant": true,
      "inputs": [
        {
          "internalType": "bytes",
          "name": "message",
          "type": "bytes"
        },
        {
          "internalType": "uint256",
          "name": "c0",
          "type": "uint256"
        },
        {
          "internalType": "uint256[]",
          "name": "keyImage0",
          "type": "uint256[]"
        },
        {
          "internalType": "uint256[]",
          "name": "s",
          "type": "uint256[]"
        },
        {
          "internalType": "uint256[2][]",
          "name": "publicKeys",
          "type": "uint256[2][]"
        }
      ],
      "name": "verify",
      "outputs": [
        {
          "internalType": "bool",
          "name": "",
          "type": "bool"
        }
      ],
      "payable": false,
      "stateMutability": "view",
      "type": "function"
    }
  ],
  "bytecode": "0x6111d8610026600b82828239805160001a60731461001957fe5b30600052607381538281f3fe730000000000000000000000000000000000000000301460806040526004361061006c5760003560e01c80632872d29a1461007157806336c91c05146101265780633801475a1461021c57806385d88a43146104f15780639728de98146105e8578063d6edde19146106b7575b600080fd5b6100e86004803603608081101561008757600080fd5b8101908080604001906002806020026040519081016040528092919082600260200280828437600081840152601f19601f82011690508083019250505050505091929192908035906020019092919080359060200190929190505050610721565b6040518082600260200280838360005b838110156101135780820151818401526020810190506100f8565b5050505090500191505060405180910390f35b6101de600480360360c081101561013c57600080fd5b8101908080604001906002806020026040519081016040528092919082600260200280828437600081840152601f19601f820116905080830192505050505050919291929080604001906002806020026040519081016040528092919082600260200280828437600081840152601f19601f82011690508083019250505050505091929192908035906020019092919080359060200190929190505050610965565b6040518082600260200280838360005b838110156102095780820151818401526020810190506101ee565b5050505090500191505060405180910390f35b6104d7600480360360a081101561023257600080fd5b810190808035906020019064010000000081111561024f57600080fd5b82018360208201111561026157600080fd5b8035906020019184600183028401116401000000008311171561028357600080fd5b91908080601f016020809104026020016040519081016040528093929190818152602001838380828437600081840152601f19601f82011690508083019250505050505050919291929080359060200190929190803590602001906401000000008111156102f057600080fd5b82018360208201111561030257600080fd5b8035906020019184602083028401116401000000008311171561032457600080fd5b919080806020026020016040519081016040528093929190818152602001838360200280828437600081840152601f19601f8201169050808301925050505050505091929192908035906020019064010000000081111561038457600080fd5b82018360208201111561039657600080fd5b803590602001918460208302840111640100000000831117156103b857600080fd5b919080806020026020016040519081016040528093929190818152602001838360200280828437600081840152601f19601f8201169050808301925050505050505091929192908035906020019064010000000081111561041857600080fd5b82018360208201111561042a57600080fd5b8035906020019184604083028401116401000000008311171561044c57600080fd5b9190808060200260200160405190810160405280939291908181526020016000905b828210156104c5578484839050604002016002806020026040519081016040528092919082600260200280828437600081840152601f19601f8201169050808301925050505050508152602001906001019061046e565b50505050509192919290505050610bda565b604051808215151515815260200191505060405180910390f35b6105aa6004803603602081101561050757600080fd5b810190808035906020019064010000000081111561052457600080fd5b82018360208201111561053657600080fd5b8035906020019184600183028401116401000000008311171561055857600080fd5b91908080601f016020809104026020016040519081016040528093929190818152602001838380828437600081840152601f19601f820116905080830192505050505050509192919290505050610eb8565b6040518082600260200280838360005b838110156105d55780820151818401526020810190506105ba565b5050505090500191505060405180910390f35b6106a1600480360360208110156105fe57600080fd5b810190808035906020019064010000000081111561061b57600080fd5b82018360208201111561062d57600080fd5b8035906020019184600183028401116401000000008311171561064f57600080fd5b91908080601f016020809104026020016040519081016040528093929190818152602001838380828437600081840152601f19601f820116905080830192505050505050509192919290505050610ed8565b6040518082815260200191505060405180910390f35b6106e3600480360360208110156106cd57600080fd5b8101908080359060200190929190505050610f75565b6040518082600260200280838360005b8381101561070e5780820151818401526020810190506106f3565b5050505090500191505060405180910390f35b610729611181565b73__AltBn128______________________________63a867d0ca73__AltBn128______________________________6345c37318856040518263ffffffff1660e01b815260040180828152602001915050604080518083038186803b15801561079157600080fd5b505af41580156107a5573d6000803e3d6000fd5b505050506040513d601f19601f8201168201806040525060408110156107ca57600080fd5b810190809190505073__AltBn128______________________________6371de372488886040518363ffffffff1660e01b81526004018083600260200280838360005b8381101561082857808201518184015260208101905061080d565b5050505090500182815260200192505050604080518083038186803b15801561085057600080fd5b505af4158015610864573d6000803e3d6000fd5b505050506040513d601f19601f82011682018060405250604081101561088957600080fd5b81019080919050506040518363ffffffff1660e01b81526004018083600260200280838360005b838110156108cb5780820151818401526020810190506108b0565b5050505090500182600260200280838360005b838110156108f95780820151818401526020810190506108de565b5050505090500192505050604080518083038186803b15801561091b57600080fd5b505af415801561092f573d6000803e3d6000fd5b505050506040513d601f19601f82011682018060405250604081101561095457600080fd5b810190809190505090509392505050565b61096d611181565b73__AltBn128______________________________63a867d0ca73__AltBn128______________________________6371de372487876040518363ffffffff1660e01b81526004018083600260200280838360005b838110156109dd5780820151818401526020810190506109c2565b5050505090500182815260200192505050604080518083038186803b158015610a0557600080fd5b505af4158015610a19573d6000803e3d6000fd5b505050506040513d601f19601f820116820180604052506040811015610a3e57600080fd5b810190809190505073__AltBn128______________________________6371de372489876040518363ffffffff1660e01b81526004018083600260200280838360005b83811015610a9c578082015181840152602081019050610a81565b5050505090500182815260200192505050604080518083038186803b158015610ac457600080fd5b505af4158015610ad8573d6000803e3d6000fd5b505050506040513d601f19601f820116820180604052506040811015610afd57600080fd5b81019080919050506040518363ffffffff1660e01b81526004018083600260200280838360005b83811015610b3f578082015181840152602081019050610b24565b5050505090500182600260200280838360005b83811015610b6d578082015181840152602081019050610b52565b5050505090500192505050604080518083038186803b158015610b8f57600080fd5b505af4158015610ba3573d6000803e3d6000fd5b505050506040513d601f19601f820116820180604052506040811015610bc857600080fd5b81019080919050509050949350505050565b6000600282511015610c54576040517f08c379a00000000000000000000000000000000000000000000000000000000081526004018080602001828103825260188152602001807f5369676e61747572652073697a6520746f6f20736d616c6c000000000000000081525060200191505060405180910390fd5b8251825114610ccb576040517f08c379a000000000000000000000000000000000000000000000000000000000815260040180806020018281038252601d8152602001807f5369676e61747572652073697a657320646f206e6f74206d617463682100000081525060200191505060405180910390fd5b610cd3611181565b84600081518110610ce057fe5b602002602001015181600060028110610cf557fe5b60200201818152505084600181518110610d0b57fe5b602002602001015181600160028110610d2057fe5b602002018181525050600086905060008090506060604051806020016040528060008152509050600091505b8551821015610e125780868381518110610d6257fe5b60200260200101516040516020018083805190602001908083835b60208310610da05780518252602082019150602081019050602083039250610d7d565b6001836020036101000a03801982511681845116808217855250505050505090500182600260200280838360005b83811015610de9578082015181840152602081019050610dce565b505050509050019250505060405160208183030381529060405290508180600101925050610d4c565b610e1a611181565b610e2382610eb8565b9050610e2d611181565b610e35611181565b600094505b8851851015610ea457610e74898681518110610e5257fe5b6020026020010151878c8881518110610e6757fe5b6020026020010151610721565b9150610e9587848c8881518110610e8757fe5b602002602001015189610965565b90508480600101955050610e3a565b600197505050505050505095945050505050565b610ec0611181565b610ed1610ecc83610ed8565b610f75565b9050919050565b600073__AltBn128______________________________634f06f279838051906020012060001c6040518263ffffffff1660e01b81526004018082815260200191505060206040518083038186803b158015610f3357600080fd5b505af4158015610f47573d6000803e3d6000fd5b505050506040513d6020811015610f5d57600080fd5b81019080805190602001909291905050509050919050565b610f7d611181565b60008290506000805b6001156111785773__AltBn128______________________________63c690219b846040518263ffffffff1660e01b815260040180828152602001915050604080518083038186803b158015610fdb57600080fd5b505af4158015610fef573d6000803e3d6000fd5b505050506040513d604081101561100557600080fd5b810190808051906020019092919080519060200190929190505050809350819250505073__AltBn128______________________________6381dd69fe82846040518363ffffffff1660e01b8152600401808381526020018281526020019250505060206040518083038186803b15801561107f57600080fd5b505af4158015611093573d6000803e3d6000fd5b505050506040513d60208110156110a957600080fd5b8101908080519060200190929190505050156110de57604051806040016040528084815260200183815250935050505061117c565b73__AltBn128______________________________63e76ee2428460016040518363ffffffff1660e01b8152600401808381526020018281526020019250505060206040518083038186803b15801561113657600080fd5b505af415801561114a573d6000803e3d6000fd5b505050506040513d602081101561116057600080fd5b81019080805190602001909291905050509250610f86565b5050505b919050565b604051806040016040528060029060208202803883398082019150509050509056fea265627a7a723158207c8c31e68ba2cb7df11104558c4da4d45e1fc0195d26bf4c5a107d268f59e74264736f6c63430005110032",
  "source": "pragma solidity >=0.5.0 <0.6.0;\r\n\r\nimport \"./AltBn128.sol\";\r\n\r\n/*\r\nLinkable Spontaneous Anonymous Groups\r\n\r\nhttps://eprint.iacr.org/2004/027.pdf\r\n*/\r\n\r\nlibrary LSAG {\r\n    // abi.encodePacked is the \"concat\" or \"serialization\"\r\n    // of all supplied arguments into one long bytes value\r\n    // i.e. abi.encodePacked :: [a] -> bytes\r\n\r\n    /**\r\n    * Converts an integer to an elliptic curve point\r\n    */\r\n    function intToPoint(uint256 _x) public view\r\n    returns (uint256[2] memory)\r\n    {\r\n        uint256 x = _x;\r\n        uint256 y;\r\n        uint256 beta;\r\n\r\n        while (true) {\r\n            (beta, y) = AltBn128.evalCurve(x);\r\n\r\n            if (AltBn128.onCurveBeta(beta, y)) {\r\n                return [x, y];\r\n            }\r\n\r\n            x = AltBn128.addmodn(x, 1);\r\n        }\r\n    }\r\n\r\n    /**\r\n    * Returns an integer representation of the hash\r\n    * of the input\r\n    */\r\n    function H1(bytes memory b) public pure\r\n    returns (uint256)\r\n    {\r\n        return AltBn128.modn(uint256(keccak256(b)));\r\n    }\r\n\r\n    /**\r\n    * Returns elliptic curve point of the integer representation\r\n    * of the hash of the input\r\n    */\r\n    function H2(bytes memory b) public view\r\n    returns (uint256[2] memory)\r\n    {\r\n        return intToPoint(H1(b));\r\n    }\r\n\r\n    /**\r\n    * Helper function to calculate Z1\r\n    * Avoids stack too deep problem\r\n    */\r\n    function ringCalcZ1(\r\n        uint256[2] memory pubKey,\r\n        uint256 c,\r\n        uint256 s\r\n    ) public view\r\n    returns (uint256[2] memory)\r\n    {\r\n        return AltBn128.ecAdd(\r\n            AltBn128.ecMulG(s),\r\n            AltBn128.ecMul(pubKey, c)\r\n        );\r\n    }\r\n\r\n    /**\r\n    * Helper function to calculate Z2\r\n    * Avoids stack too deep problem\r\n    */\r\n    function ringCalcZ2(\r\n        uint256[2] memory keyImage,\r\n        uint256[2] memory h,\r\n        uint256 s,\r\n        uint256 c\r\n    ) public view\r\n    returns (uint256[2] memory)\r\n    {\r\n        return AltBn128.ecAdd(\r\n            AltBn128.ecMul(h, s),\r\n            AltBn128.ecMul(keyImage, c)\r\n        );\r\n    }\r\n\r\n\r\n    /**\r\n    * Verifies the ring signature\r\n    * Section 4.2 of the paper https://eprint.iacr.org/2004/027.pdf\r\n    */\r\n    function verify(\r\n        bytes memory message,\r\n        uint256 c0,\r\n        uint256[] memory keyImage0,\r\n        uint256[] memory s,\r\n        uint256[2][] memory publicKeys\r\n    ) public view\r\n    returns (bool)\r\n    {\r\n\r\n        require(publicKeys.length >= 2, \"Signature size too small\");\r\n        require(publicKeys.length == s.length, \"Signature sizes do not match!\");\r\n\r\n        uint256[2] memory keyImage;\r\n        keyImage[0] = keyImage0[0];\r\n        keyImage[1] = keyImage0[1];\r\n\r\n        uint256 c = c0;\r\n        uint256 i = 0;\r\n\r\n        // Step 1\r\n        // Extract out public key bytes\r\n        bytes memory hBytes = \"\";\r\n\r\n        for (i = 0; i < publicKeys.length; i++) {\r\n            hBytes = abi.encodePacked(\r\n                hBytes,\r\n                publicKeys[i]\r\n            );\r\n        }\r\n\r\n        uint256[2] memory h = H2(hBytes);\r\n\r\n        // Step 2\r\n        uint256[2] memory z_1;\r\n        uint256[2] memory z_2;\r\n\r\n\r\n        for (i = 0; i < publicKeys.length; i++) {\r\n            z_1 = ringCalcZ1(publicKeys[i], c, s[i]);\r\n            z_2 = ringCalcZ2(keyImage, h, s[i], c);\r\n            /*\r\n            if (i != publicKeys.length - 1) {\r\n                c = H1(\r\n                    abi.encodePacked(\r\n                        hBytes,\r\n                        keyImage,\r\n                        message,\r\n                        z_1,\r\n                        z_2\r\n                    )\r\n                );\r\n            }*/\r\n        }\r\n        /*\r\n        return c0 == H1(\r\n            abi.encodePacked(\r\n                hBytes,\r\n                keyImage,\r\n                message,\r\n                z_1,\r\n                z_2\r\n            )\r\n        );*/\r\n        return true;\r\n    }\r\n}",
  "sourcePath": "E:\\RingTest\\contracts\\LSAG.sol",
  "compiler": {
    "name": "solc",
    "version": "0.5.17+commit.d19bba13.Emscripten.clang"
  },
  "schemaVersion": "3.4.4",
  "updatedAt": "2021-12-28T09:14:20.243Z",
  "devdoc": {
    "methods": {}
  },
  "userdoc": {
    "methods": {
      "H1(bytes)": {
        "notice": "Returns an integer representation of the hash of the input"
      },
      "H2(bytes)": {
        "notice": "Returns elliptic curve point of the integer representation of the hash of the input"
      },
      "intToPoint(uint256)": {
        "notice": "Converts an integer to an elliptic curve point"
      },
      "ringCalcZ1(uint256[2],uint256,uint256)": {
        "notice": "Helper function to calculate Z1 Avoids stack too deep problem"
      },
      "ringCalcZ2(uint256[2],uint256[2],uint256,uint256)": {
        "notice": "Helper function to calculate Z2 Avoids stack too deep problem"
      },
      "verify(bytes,uint256,uint256[],uint256[],uint256[2][])": {
        "notice": "Verifies the ring signature Section 4.2 of the paper https://eprint.iacr.org/2004/027.pdf"
      }
    }
  }
}