{
  "contractName": "LSAG",
  "abi": [
    {
      "constant": true,
      "inputs": [
        {
          "internalType": "uint256",
          "name": "_x",
          "type": "uint256"
        }
      ],
      "name": "intToPoint",
      "outputs": [
        {
          "internalType": "uint256[2]",
          "name": "",
          "type": "uint256[2]"
        }
      ],
      "payable": false,
      "stateMutability": "view",
      "type": "function"
    },
    {
      "constant": true,
      "inputs": [
        {
          "internalType": "bytes",
          "name": "b",
          "type": "bytes"
        }
      ],
      "name": "H1",
      "outputs": [
        {
          "internalType": "uint256",
          "name": "",
          "type": "uint256"
        }
      ],
      "payable": false,
      "stateMutability": "pure",
      "type": "function"
    },
    {
      "constant": true,
      "inputs": [
        {
          "internalType": "bytes",
          "name": "b",
          "type": "bytes"
        }
      ],
      "name": "H2",
      "outputs": [
        {
          "internalType": "uint256[2]",
          "name": "",
          "type": "uint256[2]"
        }
      ],
      "payable": false,
      "stateMutability": "view",
      "type": "function"
    },
    {
      "constant": true,
      "inputs": [
        {
          "internalType": "uint256[2]",
          "name": "pubKey",
          "type": "uint256[2]"
        },
        {
          "internalType": "uint256",
          "name": "c",
          "type": "uint256"
        },
        {
          "internalType": "uint256",
          "name": "s",
          "type": "uint256"
        }
      ],
      "name": "ringCalcZ1",
      "outputs": [
        {
          "internalType": "uint256[2]",
          "name": "",
          "type": "uint256[2]"
        }
      ],
      "payable": false,
      "stateMutability": "view",
      "type": "function"
    },
    {
      "constant": true,
      "inputs": [
        {
          "internalType": "uint256[2]",
          "name": "keyImage",
          "type": "uint256[2]"
        },
        {
          "internalType": "uint256[2]",
          "name": "h",
          "type": "uint256[2]"
        },
        {
          "internalType": "uint256",
          "name": "s",
          "type": "uint256"
        },
        {
          "internalType": "uint256",
          "name": "c",
          "type": "uint256"
        }
      ],
      "name": "ringCalcZ2",
      "outputs": [
        {
          "internalType": "uint256[2]",
          "name": "",
          "type": "uint256[2]"
        }
      ],
      "payable": false,
      "stateMutability": "view",
      "type": "function"
    },
    {
      "constant": true,
      "inputs": [
        {
          "internalType": "bytes",
          "name": "message",
          "type": "bytes"
        },
        {
          "internalType": "uint256",
          "name": "c0",
          "type": "uint256"
        },
        {
          "internalType": "uint256[2]",
          "name": "keyImage",
          "type": "uint256[2]"
        },
        {
          "internalType": "uint256[]",
          "name": "s",
          "type": "uint256[]"
        },
        {
          "internalType": "uint256[2][]",
          "name": "publicKeys",
          "type": "uint256[2][]"
        }
      ],
      "name": "verify",
      "outputs": [
        {
          "internalType": "bool",
          "name": "",
          "type": "bool"
        }
      ],
      "payable": false,
      "stateMutability": "view",
      "type": "function"
    }
  ],
  "bytecode": "0x6113e0610026600b82828239805160001a60731461001957fe5b30600052607381538281f3fe730000000000000000000000000000000000000000301460806040526004361061006c5760003560e01c80632872d29a1461007157806336c91c051461012657806385d88a431461021c5780639728de9814610313578063d6edde19146103e2578063fe46a2b21461044c575b600080fd5b6100e86004803603608081101561008757600080fd5b8101908080604001906002806020026040519081016040528092919082600260200280828437600081840152601f19601f820116905080830192505050505050919291929080359060200190929190803590602001909291905050506106ce565b6040518082600260200280838360005b838110156101135780820151818401526020810190506100f8565b5050505090500191505060405180910390f35b6101de600480360360c081101561013c57600080fd5b8101908080604001906002806020026040519081016040528092919082600260200280828437600081840152601f19601f820116905080830192505050505050919291929080604001906002806020026040519081016040528092919082600260200280828437600081840152601f19601f82011690508083019250505050505091929192908035906020019092919080359060200190929190505050610912565b6040518082600260200280838360005b838110156102095780820151818401526020810190506101ee565b5050505090500191505060405180910390f35b6102d56004803603602081101561023257600080fd5b810190808035906020019064010000000081111561024f57600080fd5b82018360208201111561026157600080fd5b8035906020019184600183028401116401000000008311171561028357600080fd5b91908080601f016020809104026020016040519081016040528093929190818152602001838380828437600081840152601f19601f820116905080830192505050505050509192919290505050610b87565b6040518082600260200280838360005b838110156103005780820151818401526020810190506102e5565b5050505090500191505060405180910390f35b6103cc6004803603602081101561032957600080fd5b810190808035906020019064010000000081111561034657600080fd5b82018360208201111561035857600080fd5b8035906020019184600183028401116401000000008311171561037a57600080fd5b91908080601f016020809104026020016040519081016040528093929190818152602001838380828437600081840152601f19601f820116905080830192505050505050509192919290505050610ba7565b6040518082815260200191505060405180910390f35b61040e600480360360208110156103f857600080fd5b8101908080359060200190929190505050610c44565b6040518082600260200280838360005b8381101561043957808201518184015260208101905061041e565b5050505090500191505060405180910390f35b6106b4600480360360c081101561046257600080fd5b810190808035906020019064010000000081111561047f57600080fd5b82018360208201111561049157600080fd5b803590602001918460018302840111640100000000831117156104b357600080fd5b91908080601f016020809104026020016040519081016040528093929190818152602001838380828437600081840152601f19601f8201169050808301925050505050505091929192908035906020019092919080604001906002806020026040519081016040528092919082600260200280828437600081840152601f19601f82011690508083019250505050505091929192908035906020019064010000000081111561056157600080fd5b82018360208201111561057357600080fd5b8035906020019184602083028401116401000000008311171561059557600080fd5b919080806020026020016040519081016040528093929190818152602001838360200280828437600081840152601f19601f820116905080830192505050505050509192919290803590602001906401000000008111156105f557600080fd5b82018360208201111561060757600080fd5b8035906020019184604083028401116401000000008311171561062957600080fd5b9190808060200260200160405190810160405280939291908181526020016000905b828210156106a2578484839050604002016002806020026040519081016040528092919082600260200280828437600081840152601f19601f8201169050808301925050505050508152602001906001019061064b565b50505050509192919290505050610e50565b604051808215151515815260200191505060405180910390f35b6106d6611389565b73__AltBn128______________________________63a867d0ca73__AltBn128______________________________6345c37318856040518263ffffffff1660e01b815260040180828152602001915050604080518083038186803b15801561073e57600080fd5b505af4158015610752573d6000803e3d6000fd5b505050506040513d601f19601f82011682018060405250604081101561077757600080fd5b810190809190505073__AltBn128______________________________6371de372488886040518363ffffffff1660e01b81526004018083600260200280838360005b838110156107d55780820151818401526020810190506107ba565b5050505090500182815260200192505050604080518083038186803b1580156107fd57600080fd5b505af4158015610811573d6000803e3d6000fd5b505050506040513d601f19601f82011682018060405250604081101561083657600080fd5b81019080919050506040518363ffffffff1660e01b81526004018083600260200280838360005b8381101561087857808201518184015260208101905061085d565b5050505090500182600260200280838360005b838110156108a657808201518184015260208101905061088b565b5050505090500192505050604080518083038186803b1580156108c857600080fd5b505af41580156108dc573d6000803e3d6000fd5b505050506040513d601f19601f82011682018060405250604081101561090157600080fd5b810190809190505090509392505050565b61091a611389565b73__AltBn128______________________________63a867d0ca73__AltBn128______________________________6371de372487876040518363ffffffff1660e01b81526004018083600260200280838360005b8381101561098a57808201518184015260208101905061096f565b5050505090500182815260200192505050604080518083038186803b1580156109b257600080fd5b505af41580156109c6573d6000803e3d6000fd5b505050506040513d601f19601f8201168201806040525060408110156109eb57600080fd5b810190809190505073__AltBn128______________________________6371de372489876040518363ffffffff1660e01b81526004018083600260200280838360005b83811015610a49578082015181840152602081019050610a2e565b5050505090500182815260200192505050604080518083038186803b158015610a7157600080fd5b505af4158015610a85573d6000803e3d6000fd5b505050506040513d601f19601f820116820180604052506040811015610aaa57600080fd5b81019080919050506040518363ffffffff1660e01b81526004018083600260200280838360005b83811015610aec578082015181840152602081019050610ad1565b5050505090500182600260200280838360005b83811015610b1a578082015181840152602081019050610aff565b5050505090500192505050604080518083038186803b158015610b3c57600080fd5b505af4158015610b50573d6000803e3d6000fd5b505050506040513d601f19601f820116820180604052506040811015610b7557600080fd5b81019080919050509050949350505050565b610b8f611389565b610ba0610b9b83610ba7565b610c44565b9050919050565b600073__AltBn128______________________________634f06f279838051906020012060001c6040518263ffffffff1660e01b81526004018082815260200191505060206040518083038186803b158015610c0257600080fd5b505af4158015610c16573d6000803e3d6000fd5b505050506040513d6020811015610c2c57600080fd5b81019080805190602001909291905050509050919050565b610c4c611389565b60008290506000805b600115610e475773__AltBn128______________________________63c690219b846040518263ffffffff1660e01b815260040180828152602001915050604080518083038186803b158015610caa57600080fd5b505af4158015610cbe573d6000803e3d6000fd5b505050506040513d6040811015610cd457600080fd5b810190808051906020019092919080519060200190929190505050809350819250505073__AltBn128______________________________6381dd69fe82846040518363ffffffff1660e01b8152600401808381526020018281526020019250505060206040518083038186803b158015610d4e57600080fd5b505af4158015610d62573d6000803e3d6000fd5b505050506040513d6020811015610d7857600080fd5b810190808051906020019092919050505015610dad576040518060400160405280848152602001838152509350505050610e4b565b73__AltBn128______________________________63e76ee2428460016040518363ffffffff1660e01b8152600401808381526020018281526020019250505060206040518083038186803b158015610e0557600080fd5b505af4158015610e19573d6000803e3d6000fd5b505050506040513d6020811015610e2f57600080fd5b81019080805190602001909291905050509250610c55565b5050505b919050565b6000600282511015610eca576040517f08c379a00000000000000000000000000000000000000000000000000000000081526004018080602001828103825260188152602001807f5369676e61747572652073697a6520746f6f20736d616c6c000000000000000081525060200191505060405180910390fd5b8251825114610f41576040517f08c379a000000000000000000000000000000000000000000000000000000000815260040180806020018281038252601d8152602001807f5369676e61747572652073697a657320646f206e6f74206d617463682100000081525060200191505060405180910390fd5b600085905060008090506060604051806020016040528060008152509050600091505b845182101561102a5780858381518110610f7a57fe5b60200260200101516040516020018083805190602001908083835b60208310610fb85780518252602082019150602081019050602083039250610f95565b6001836020036101000a03801982511681845116808217855250505050505090500182600260200280838360005b83811015611001578082015181840152602081019050610fe6565b505050509050019250505060405160208183030381529060405290508180600101925050610f64565b611032611389565b61103b82610b87565b9050611045611389565b61104d611389565b600094505b87518510156112205761108c88868151811061106a57fe5b6020026020010151878b888151811061107f57fe5b60200260200101516106ce565b91506110ad8a848b888151811061109f57fe5b602002602001015189610912565b90506001885103851461121357611210848b8e85856040516020018086805190602001908083835b602083106110f857805182526020820191506020810190506020830392506110d5565b6001836020036101000a03801982511681845116808217855250505050505090500185600260200280838360005b83811015611141578082015181840152602081019050611126565b5050505090500184805190602001908083835b602083106111775780518252602082019150602081019050602083039250611154565b6001836020036101000a03801982511681845116808217855250505050505090500183600260200280838360005b838110156111c05780820151818401526020810190506111a5565b5050505090500182600260200280838360005b838110156111ee5780820151818401526020810190506111d3565b5050505090500195505050505050604051602081830303815290604052610ba7565b95505b8480600101955050611052565b611376848b8e85856040516020018086805190602001908083835b6020831061125e578051825260208201915060208101905060208303925061123b565b6001836020036101000a03801982511681845116808217855250505050505090500185600260200280838360005b838110156112a757808201518184015260208101905061128c565b5050505090500184805190602001908083835b602083106112dd57805182526020820191506020810190506020830392506112ba565b6001836020036101000a03801982511681845116808217855250505050505090500183600260200280838360005b8381101561132657808201518184015260208101905061130b565b5050505090500182600260200280838360005b83811015611354578082015181840152602081019050611339565b5050505090500195505050505050604051602081830303815290604052610ba7565b8b14965050505050505095945050505050565b604051806040016040528060029060208202803883398082019150509050509056fea265627a7a72315820d1d17a6300d0ffd6fd6a7239898c129d78902db9750921848bfe0a657fbc0ce164736f6c63430005110032",
  "source": "pragma solidity >=0.5.0 <0.6.0;\r\n\r\nimport \"./AltBn128.sol\";\r\n\r\n/*\r\nLinkable Spontaneous Anonymous Groups\r\n\r\nhttps://eprint.iacr.org/2004/027.pdf\r\n*/\r\n\r\nlibrary LSAG {\r\n    // abi.encodePacked is the \"concat\" or \"serialization\"\r\n    // of all supplied arguments into one long bytes value\r\n    // i.e. abi.encodePacked :: [a] -> bytes\r\n\r\n    /**\r\n    * Converts an integer to an elliptic curve point\r\n    */\r\n    function intToPoint(uint256 _x) public view\r\n    returns (uint256[2] memory)\r\n    {\r\n        uint256 x = _x;\r\n        uint256 y;\r\n        uint256 beta;\r\n\r\n        while (true) {\r\n            (beta, y) = AltBn128.evalCurve(x);\r\n\r\n            if (AltBn128.onCurveBeta(beta, y)) {\r\n                return [x, y];\r\n            }\r\n\r\n            x = AltBn128.addmodn(x, 1);\r\n        }\r\n    }\r\n\r\n    /**\r\n    * Returns an integer representation of the hash\r\n    * of the input\r\n    */\r\n    function H1(bytes memory b) public pure\r\n    returns (uint256)\r\n    {\r\n        return AltBn128.modn(uint256(keccak256(b)));\r\n    }\r\n\r\n    /**\r\n    * Returns elliptic curve point of the integer representation\r\n    * of the hash of the input\r\n    */\r\n    function H2(bytes memory b) public view\r\n    returns (uint256[2] memory)\r\n    {\r\n        return intToPoint(H1(b));\r\n    }\r\n\r\n    /**\r\n    * Helper function to calculate Z1\r\n    * Avoids stack too deep problem\r\n    */\r\n    function ringCalcZ1(\r\n        uint256[2] memory pubKey,\r\n        uint256 c,\r\n        uint256 s\r\n    ) public view\r\n    returns (uint256[2] memory)\r\n    {\r\n        return AltBn128.ecAdd(\r\n            AltBn128.ecMulG(s),\r\n            AltBn128.ecMul(pubKey, c)\r\n        );\r\n    }\r\n\r\n    /**\r\n    * Helper function to calculate Z2\r\n    * Avoids stack too deep problem\r\n    */\r\n    function ringCalcZ2(\r\n        uint256[2] memory keyImage,\r\n        uint256[2] memory h,\r\n        uint256 s,\r\n        uint256 c\r\n    ) public view\r\n    returns (uint256[2] memory)\r\n    {\r\n        return AltBn128.ecAdd(\r\n            AltBn128.ecMul(h, s),\r\n            AltBn128.ecMul(keyImage, c)\r\n        );\r\n    }\r\n\r\n\r\n    /**\r\n    * Verifies the ring signature\r\n    * Section 4.2 of the paper https://eprint.iacr.org/2004/027.pdf\r\n    */\r\n    function verify(\r\n        bytes memory message,\r\n        uint256 c0,\r\n        uint256[2] memory keyImage,\r\n        uint256[] memory s,\r\n        uint256[2][] memory publicKeys\r\n    ) public view\r\n    returns (bool)\r\n    {\r\n\r\n        require(publicKeys.length >= 2, \"Signature size too small\");\r\n        require(publicKeys.length == s.length, \"Signature sizes do not match!\");\r\n\r\n        uint256 c = c0;\r\n        uint256 i = 0;\r\n\r\n        // Step 1\r\n        // Extract out public key bytes\r\n        bytes memory hBytes = \"\";\r\n\r\n        for (i = 0; i < publicKeys.length; i++) {\r\n            hBytes = abi.encodePacked(\r\n                hBytes,\r\n                publicKeys[i]\r\n            );\r\n        }\r\n\r\n        uint256[2] memory h = H2(hBytes);\r\n\r\n        // Step 2\r\n        uint256[2] memory z_1;\r\n        uint256[2] memory z_2;\r\n\r\n\r\n        for (i = 0; i < publicKeys.length; i++) {\r\n            z_1 = ringCalcZ1(publicKeys[i], c, s[i]);\r\n            z_2 = ringCalcZ2(keyImage, h, s[i], c);\r\n\r\n            if (i != publicKeys.length - 1) {\r\n                c = H1(\r\n                    abi.encodePacked(\r\n                        hBytes,\r\n                        keyImage,\r\n                        message,\r\n                        z_1,\r\n                        z_2\r\n                    )\r\n                );\r\n            }\r\n        }\r\n\r\n        return c0 == H1(\r\n            abi.encodePacked(\r\n                hBytes,\r\n                keyImage,\r\n                message,\r\n                z_1,\r\n                z_2\r\n            )\r\n        );\r\n    }\r\n}",
  "sourcePath": "E:\\RingTest\\contracts\\LSAG.sol",
  "compiler": {
    "name": "solc",
    "version": "0.5.17+commit.d19bba13.Emscripten.clang"
  },
  "schemaVersion": "3.4.4",
  "updatedAt": "2021-12-31T07:31:08.209Z",
  "devdoc": {
    "methods": {}
  },
  "userdoc": {
    "methods": {
      "H1(bytes)": {
        "notice": "Returns an integer representation of the hash of the input"
      },
      "H2(bytes)": {
        "notice": "Returns elliptic curve point of the integer representation of the hash of the input"
      },
      "intToPoint(uint256)": {
        "notice": "Converts an integer to an elliptic curve point"
      },
      "ringCalcZ1(uint256[2],uint256,uint256)": {
        "notice": "Helper function to calculate Z1 Avoids stack too deep problem"
      },
      "ringCalcZ2(uint256[2],uint256[2],uint256,uint256)": {
        "notice": "Helper function to calculate Z2 Avoids stack too deep problem"
      },
      "verify(bytes,uint256,uint256[2],uint256[],uint256[2][])": {
        "notice": "Verifies the ring signature Section 4.2 of the paper https://eprint.iacr.org/2004/027.pdf"
      }
    }
  }
}