{
  "contractName": "Register",
  "abi": [
    {
      "constant": false,
      "inputs": [
        {
          "internalType": "uint256[2]",
          "name": "_add",
          "type": "uint256[2]"
        }
      ],
      "name": "addUser",
      "outputs": [],
      "payable": false,
      "stateMutability": "nonpayable",
      "type": "function"
    },
    {
      "constant": true,
      "inputs": [
        {
          "internalType": "uint256",
          "name": "i",
          "type": "uint256"
        }
      ],
      "name": "getUsers",
      "outputs": [
        {
          "internalType": "uint256[2]",
          "name": "",
          "type": "uint256[2]"
        }
      ],
      "payable": false,
      "stateMutability": "view",
      "type": "function"
    },
    {
      "constant": true,
      "inputs": [],
      "name": "getPublicKeysLength",
      "outputs": [
        {
          "internalType": "uint256",
          "name": "",
          "type": "uint256"
        }
      ],
      "payable": false,
      "stateMutability": "view",
      "type": "function"
    },
    {
      "constant": true,
      "inputs": [],
      "name": "getCountOfUsers",
      "outputs": [
        {
          "internalType": "uint256",
          "name": "",
          "type": "uint256"
        }
      ],
      "payable": false,
      "stateMutability": "view",
      "type": "function"
    }
  ],
  "bytecode": "0x608060405234801561001057600080fd5b5061049d806100206000396000f3fe608060405234801561001057600080fd5b506004361061004c5760003560e01c80631e44c8c9146100515780635d73ab9a1461006f578063ba3fc89a1461009f578063f54a5cc8146100bd575b600080fd5b6100596100d9565b60405161006691906103a2565b60405180910390f35b610089600480360361008491908101906102d1565b6100e5565b6040516100969190610387565b60405180910390f35b6100a761014b565b6040516100b491906103a2565b60405180910390f35b6100d760048036036100d291908101906102a8565b610157565b005b60008080549050905090565b6100ed610198565b600082815481106100fa57fe5b906000526020600020906002020160028060200260405190810160405280929190826002801561013f576020028201915b81548152602001906001019080831161012b575b50505050509050919050565b60008080549050905090565b600081908060018154018082558091505090600182039060005260206000209060020201600090919290919091509060026101939291906101ba565b505050565b6040518060400160405280600290602082028038833980820191505090505090565b82600281019282156101e9579160200282015b828111156101e85782518255916020019190600101906101cd565b5b5090506101f691906101fa565b5090565b61021c91905b80821115610218576000816000905550600101610200565b5090565b90565b600082601f83011261023057600080fd5b600261024361023e826103ea565b6103bd565b9150818385602084028201111561025957600080fd5b60005b83811015610289578161026f8882610293565b84526020840193506020830192505060018101905061025c565b5050505092915050565b6000813590506102a281610443565b92915050565b6000604082840312156102ba57600080fd5b60006102c88482850161021f565b91505092915050565b6000602082840312156102e357600080fd5b60006102f184828501610293565b91505092915050565b60006103068383610369565b60208301905092915050565b61031b81610416565b610325818461042e565b92506103308261040c565b8060005b8381101561036157815161034887826102fa565b965061035383610421565b925050600181019050610334565b505050505050565b61037281610439565b82525050565b61038181610439565b82525050565b600060408201905061039c6000830184610312565b92915050565b60006020820190506103b76000830184610378565b92915050565b6000604051905081810181811067ffffffffffffffff821117156103e057600080fd5b8060405250919050565b600067ffffffffffffffff82111561040157600080fd5b602082029050919050565b6000819050919050565b600060029050919050565b6000602082019050919050565b600081905092915050565b6000819050919050565b61044c81610439565b811461045757600080fd5b5056fea365627a7a723158205997b4f6c93c7ab24d59d63bd1d75e5372085d872b97160e44d866e45956a5976c6578706572696d656e74616cf564736f6c63430005110040",
  "source": "pragma solidity >=0.5.0 <0.6.0;\r\npragma experimental ABIEncoderV2;\r\ncontract Register {\r\n    uint256[2][] publicKeys;    // 用户列表\r\n\r\n    function addUser(uint256[2] memory _add) public {\r\n        publicKeys.push(_add);\r\n    }\r\n\r\n    function getUsers (uint i) public view returns (uint256[2] memory) {\r\n        return publicKeys[i];\r\n    }\r\n\r\n    function getPublicKeysLength() public view returns (uint) {\r\n        return publicKeys.length;\r\n    }\r\n\r\n    function getCountOfUsers() public view returns (uint) {\r\n        return publicKeys.length;\r\n    }\r\n\r\n}",
  "sourcePath": "E:\\RingTest\\contracts\\Register.sol",
  "compiler": {
    "name": "solc",
    "version": "0.5.17+commit.d19bba13.Emscripten.clang"
  },
  "schemaVersion": "3.4.4",
  "updatedAt": "2022-01-04T06:33:39.904Z",
  "devdoc": {
    "methods": {}
  },
  "userdoc": {
    "methods": {}
  }
}