{
  "contractName": "Register",
  "abi": [
    {
      "constant": false,
      "inputs": [
        {
          "internalType": "uint256[2]",
          "name": "_add",
          "type": "uint256[2]"
        }
      ],
      "name": "addUser",
      "outputs": [],
      "payable": false,
      "stateMutability": "nonpayable",
      "type": "function"
    },
    {
      "constant": true,
      "inputs": [
        {
          "internalType": "uint256",
          "name": "i",
          "type": "uint256"
        }
      ],
      "name": "getUsers",
      "outputs": [
        {
          "internalType": "uint256[2]",
          "name": "",
          "type": "uint256[2]"
        }
      ],
      "payable": false,
      "stateMutability": "view",
      "type": "function"
    },
    {
      "constant": true,
      "inputs": [],
      "name": "getCountOfUsers",
      "outputs": [
        {
          "internalType": "uint256",
          "name": "",
          "type": "uint256"
        }
      ],
      "payable": false,
      "stateMutability": "view",
      "type": "function"
    }
  ],
  "bytecode": "0x608060405234801561001057600080fd5b50610468806100206000396000f3fe608060405234801561001057600080fd5b50600436106100415760003560e01c80635d73ab9a14610046578063ba3fc89a14610076578063f54a5cc814610094575b600080fd5b610060600480360361005b919081019061029c565b6100b0565b60405161006d9190610352565b60405180910390f35b61007e610116565b60405161008b919061036d565b60405180910390f35b6100ae60048036036100a99190810190610273565b610122565b005b6100b8610163565b600082815481106100c557fe5b906000526020600020906002020160028060200260405190810160405280929190826002801561010a576020028201915b8154815260200190600101908083116100f6575b50505050509050919050565b60008080549050905090565b6000819080600181540180825580915050906001820390600052602060002090600202016000909192909190915090600261015e929190610185565b505050565b6040518060400160405280600290602082028038833980820191505090505090565b82600281019282156101b4579160200282015b828111156101b3578251825591602001919060010190610198565b5b5090506101c191906101c5565b5090565b6101e791905b808211156101e35760008160009055506001016101cb565b5090565b90565b600082601f8301126101fb57600080fd5b600261020e610209826103b5565b610388565b9150818385602084028201111561022457600080fd5b60005b83811015610254578161023a888261025e565b845260208401935060208301925050600181019050610227565b5050505092915050565b60008135905061026d8161040e565b92915050565b60006040828403121561028557600080fd5b6000610293848285016101ea565b91505092915050565b6000602082840312156102ae57600080fd5b60006102bc8482850161025e565b91505092915050565b60006102d18383610334565b60208301905092915050565b6102e6816103e1565b6102f081846103f9565b92506102fb826103d7565b8060005b8381101561032c57815161031387826102c5565b965061031e836103ec565b9250506001810190506102ff565b505050505050565b61033d81610404565b82525050565b61034c81610404565b82525050565b600060408201905061036760008301846102dd565b92915050565b60006020820190506103826000830184610343565b92915050565b6000604051905081810181811067ffffffffffffffff821117156103ab57600080fd5b8060405250919050565b600067ffffffffffffffff8211156103cc57600080fd5b602082029050919050565b6000819050919050565b600060029050919050565b6000602082019050919050565b600081905092915050565b6000819050919050565b61041781610404565b811461042257600080fd5b5056fea365627a7a72315820b99616d0e2c4de92ebb197a50698fba153d79dca87cf5a74d79b69a70c0132a66c6578706572696d656e74616cf564736f6c63430005110040",
  "source": "pragma solidity >=0.5.0 <0.6.0;\r\npragma experimental ABIEncoderV2;\r\ncontract Register {\r\n    uint256[2][] publicKeys;    // 用户列表\r\n\r\n    function addUser(uint256[2] memory _add) public {\r\n        publicKeys.push(_add);\r\n    }\r\n\r\n    function getUsers (uint i) public view returns (uint256[2] memory) {\r\n        return publicKeys[i];\r\n    }\r\n\r\n    function getCountOfUsers() public view returns (uint) {\r\n        return publicKeys.length;\r\n    }\r\n\r\n}",
  "sourcePath": "E:\\RingTest\\contracts\\Register.sol",
  "compiler": {
    "name": "solc",
    "version": "0.5.17+commit.d19bba13.Emscripten.clang"
  },
  "schemaVersion": "3.4.4",
  "updatedAt": "2021-12-31T07:31:08.213Z",
  "devdoc": {
    "methods": {}
  },
  "userdoc": {
    "methods": {}
  }
}