{
  "contractName": "secp256k",
  "abi": [
    {
      "inputs": [
        {
          "internalType": "uint256",
          "name": "px",
          "type": "uint256"
        },
        {
          "internalType": "uint256",
          "name": "py",
          "type": "uint256"
        },
        {
          "internalType": "uint256",
          "name": "scalar",
          "type": "uint256"
        }
      ],
      "name": "ScalarMult",
      "outputs": [
        {
          "internalType": "uint256",
          "name": "qx",
          "type": "uint256"
        },
        {
          "internalType": "uint256",
          "name": "qy",
          "type": "uint256"
        }
      ],
      "stateMutability": "nonpayable",
      "type": "function"
    },
    {
      "inputs": [
        {
          "internalType": "uint256",
          "name": "scalar",
          "type": "uint256"
        }
      ],
      "name": "ScalarBaseMult",
      "outputs": [
        {
          "internalType": "uint256",
          "name": "qx",
          "type": "uint256"
        },
        {
          "internalType": "uint256",
          "name": "qy",
          "type": "uint256"
        }
      ],
      "stateMutability": "nonpayable",
      "type": "function"
    },
    {
      "inputs": [
        {
          "internalType": "uint256",
          "name": "x1",
          "type": "uint256"
        },
        {
          "internalType": "uint256",
          "name": "y1",
          "type": "uint256"
        }
      ],
      "name": "HashToEcc",
      "outputs": [
        {
          "internalType": "uint256",
          "name": "qx",
          "type": "uint256"
        },
        {
          "internalType": "uint256",
          "name": "qy",
          "type": "uint256"
        }
      ],
      "stateMutability": "nonpayable",
      "type": "function"
    },
    {
      "inputs": [
        {
          "internalType": "uint256",
          "name": "x1",
          "type": "uint256"
        },
        {
          "internalType": "uint256",
          "name": "y1",
          "type": "uint256"
        },
        {
          "internalType": "uint256",
          "name": "x2",
          "type": "uint256"
        },
        {
          "internalType": "uint256",
          "name": "y2",
          "type": "uint256"
        }
      ],
      "name": "Add",
      "outputs": [
        {
          "internalType": "uint256",
          "name": "x3",
          "type": "uint256"
        },
        {
          "internalType": "uint256",
          "name": "y3",
          "type": "uint256"
        }
      ],
      "stateMutability": "nonpayable",
      "type": "function"
    }
  ],
  "bytecode": "0x608060405234801561001057600080fd5b50610e7a806100206000396000f3fe608060405234801561001057600080fd5b506004361061004c5760003560e01c806339cd1f4014610051578063464cb749146100825780637f77a40c146100b3578063fb88954d146100e4575b600080fd5b61006b60048036038101906100669190610b7b565b610115565b604051610079929190610bf1565b60405180910390f35b61009c60048036038101906100979190610c1a565b6101b8565b6040516100aa929190610bf1565b60405180910390f35b6100cd60048036038101906100c89190610c47565b610294565b6040516100db929190610bf1565b60405180910390f35b6100fe60048036038101906100f99190610c87565b61039d565b60405161010c929190610bf1565b60405180910390f35b600080600080600061012d898960018a8a600161043c565b80935081945082955050505061014281610674565b90507ffffffffffffffffffffffffffffffffffffffffffffffffffffffffefffffc2f8061017357610172610cda565b5b81840994507ffffffffffffffffffffffffffffffffffffffffffffffffffffffffefffffc2f806101a7576101a6610cda565b5b818309935050505094509492505050565b600080600080600061020d867f79be667ef9dcbbac55a06295ce870b07029bfcdb2dce28d959f2815b16f817987f483ada7726a3c4655da4fbfc0e1108a8fd17b448a68554199c47d08ffb10d4b8600161078d565b80935081945082955050505061022281610674565b90507ffffffffffffffffffffffffffffffffffffffffffffffffffffffffefffffc2f8061025357610252610cda565b5b81840994507ffffffffffffffffffffffffffffffffffffffffffffffffffffffffefffffc2f8061028757610286610cda565b5b8183099350505050915091565b600080600080600061031487876040516020016102b2929190610d2a565b6040516020818303038152906040528051906020012060001c7f79be667ef9dcbbac55a06295ce870b07029bfcdb2dce28d959f2815b16f817987f483ada7726a3c4655da4fbfc0e1108a8fd17b448a68554199c47d08ffb10d4b8600161078d565b80935081945082955050505061032981610674565b90507ffffffffffffffffffffffffffffffffffffffffffffffffffffffffefffffc2f8061035a57610359610cda565b5b81840994507ffffffffffffffffffffffffffffffffffffffffffffffffffffffffefffffc2f8061038e5761038d610cda565b5b81830993505050509250929050565b60008060008060006103b2868989600161078d565b8093508194508295505050506103c781610674565b90507ffffffffffffffffffffffffffffffffffffffffffffffffffffffffefffffc2f806103f8576103f7610cda565b5b81840994507ffffffffffffffffffffffffffffffffffffffffffffffffffffffffefffffc2f8061042c5761042b610cda565b5b8183099350505050935093915050565b6000806000806000806000808d148015610456575060008c145b1561046d5789898996509650965050505050610668565b60008a14801561047d5750600089145b15610494578c8c8c96509650965050505050610668565b898d1480156104a25750888c145b15610502576104b38d8c8f8e610849565b80945081955050506104c9848460036001610849565b80945081955050506104df8484600060016108c1565b80945081955050506104f58c8c60026001610849565b809250819350505061052b565b61050e89898e8e61099b565b80945081955050506105228a898f8e61099b565b80925081935050505b61053784848484610aa0565b809450819550505061054b84848686610849565b809350819850505061055f87838f8e61099b565b809350819850505061057387838c8b61099b565b80935081985050506105878d8c898561099b565b809250819750505061059b86828686610849565b80925081975050506105af86828e8e61099b565b809250819750505080821461065f577ffffffffffffffffffffffffffffffffffffffffffffffffffffffffefffffc2f806105ed576105ec610cda565b5b81880996507ffffffffffffffffffffffffffffffffffffffffffffffffffffffffefffffc2f8061062157610620610cda565b5b82870995507ffffffffffffffffffffffffffffffffffffffffffffffffffffffffefffffc2f8061065557610654610cda565b5b8183099450610663565b8194505b505050505b96509650969350505050565b6000806000905060006001905060007ffffffffffffffffffffffffffffffffffffffffffffffffffffffffefffffc2f9050600085905060005b600082146107805781836106c29190610d85565b9050837ffffffffffffffffffffffffffffffffffffffffffffffffffffffffefffffc2f806106f4576106f3610cda565b5b7ffffffffffffffffffffffffffffffffffffffffffffffffffffffffefffffc2f8061072357610722610cda565b5b8684097ffffffffffffffffffffffffffffffffffffffffffffffffffffffffefffffc2f6107519190610db6565b870880955081965050508182826107689190610dea565b846107739190610db6565b80935081945050506106ae565b8495505050505050919050565b60008060008087905060008790506000879050600087905060008060006001905060008e14156107ce5760008060019950995099505050505050505061083f565b5b6000871461082857600060018816146107fd576107f083838389898961043c565b8093508194508295505050505b60028761080a9190610d85565b9650610817868686610b18565b8096508197508298505050506107cf565b828282809a50819b50829c50505050505050505050505b9450945094915050565b6000807ffffffffffffffffffffffffffffffffffffffffffffffffffffffffefffffc2f8061087b5761087a610cda565b5b8487097ffffffffffffffffffffffffffffffffffffffffffffffffffffffffefffffc2f806108ad576108ac610cda565b5b848709809250819350505094509492505050565b6000807ffffffffffffffffffffffffffffffffffffffffffffffffffffffffefffffc2f806108f3576108f2610cda565b5b7ffffffffffffffffffffffffffffffffffffffffffffffffffffffffefffffc2f8061092257610921610cda565b5b8686097ffffffffffffffffffffffffffffffffffffffffffffffffffffffffefffffc2f8061095457610953610cda565b5b888609087ffffffffffffffffffffffffffffffffffffffffffffffffffffffffefffffc2f8061098757610986610cda565b5b848709809250819350505094509492505050565b6000807ffffffffffffffffffffffffffffffffffffffffffffffffffffffffefffffc2f806109cd576109cc610cda565b5b7ffffffffffffffffffffffffffffffffffffffffffffffffffffffffefffffc2f806109fc576109fb610cda565b5b86867ffffffffffffffffffffffffffffffffffffffffffffffffffffffffefffffc2f610a299190610db6565b097ffffffffffffffffffffffffffffffffffffffffffffffffffffffffefffffc2f80610a5957610a58610cda565b5b888609087ffffffffffffffffffffffffffffffffffffffffffffffffffffffffefffffc2f80610a8c57610a8b610cda565b5b848709809250819350505094509492505050565b6000807ffffffffffffffffffffffffffffffffffffffffffffffffffffffffefffffc2f80610ad257610ad1610cda565b5b8387097ffffffffffffffffffffffffffffffffffffffffffffffffffffffffefffffc2f80610b0457610b03610cda565b5b858709809250819350505094509492505050565b6000806000610b2b86868689898961043c565b80935081945082955050505093509350939050565b600080fd5b6000819050919050565b610b5881610b45565b8114610b6357600080fd5b50565b600081359050610b7581610b4f565b92915050565b60008060008060808587031215610b9557610b94610b40565b5b6000610ba387828801610b66565b9450506020610bb487828801610b66565b9350506040610bc587828801610b66565b9250506060610bd687828801610b66565b91505092959194509250565b610beb81610b45565b82525050565b6000604082019050610c066000830185610be2565b610c136020830184610be2565b9392505050565b600060208284031215610c3057610c2f610b40565b5b6000610c3e84828501610b66565b91505092915050565b60008060408385031215610c5e57610c5d610b40565b5b6000610c6c85828601610b66565b9250506020610c7d85828601610b66565b9150509250929050565b600080600060608486031215610ca057610c9f610b40565b5b6000610cae86828701610b66565b9350506020610cbf86828701610b66565b9250506040610cd086828701610b66565b9150509250925092565b7f4e487b7100000000000000000000000000000000000000000000000000000000600052601260045260246000fd5b6000819050919050565b610d24610d1f82610b45565b610d09565b82525050565b6000610d368285610d13565b602082019150610d468284610d13565b6020820191508190509392505050565b7f4e487b7100000000000000000000000000000000000000000000000000000000600052601160045260246000fd5b6000610d9082610b45565b9150610d9b83610b45565b925082610dab57610daa610cda565b5b828204905092915050565b6000610dc182610b45565b9150610dcc83610b45565b925082821015610ddf57610dde610d56565b5b828203905092915050565b6000610df582610b45565b9150610e0083610b45565b9250817fffffffffffffffffffffffffffffffffffffffffffffffffffffffffffffffff0483118215151615610e3957610e38610d56565b5b82820290509291505056fea26469706673582212208a3609937ee298aaea2f9e2fc04ed3b80309b9728d5e0537579891691856cf5464736f6c634300080a0033",
  "immutableReferences": {},
  "source": "pragma solidity ^0.8.10;\r\n\r\ncontract secp256k {\r\n\r\n    uint256 constant gx = 0x79BE667EF9DCBBAC55A06295CE870B07029BFCDB2DCE28D959F2815B16F81798;\r\n    uint256 constant gy = 0x483ADA7726A3C4655DA4FBFC0E1108A8FD17B448A68554199C47D08FFB10D4B8;\r\n    uint256 constant n = 0xFFFFFFFFFFFFFFFFFFFFFFFFFFFFFFFFFFFFFFFFFFFFFFFFFFFFFFFEFFFFFC2F;\r\n    uint256 constant a = 0;\r\n    uint256 constant b = 7;\r\n\r\n\r\n    function _jAdd( uint256 x1,uint256 z1,\r\n        uint256 x2,uint256 z2) internal\r\n    returns(uint256 x3,uint256 z3)\r\n    {\r\n        (x3, z3) = (  addmod( mulmod(z2, x1 , n) ,\r\n            mulmod(x2, z1 , n),\r\n            n),\r\n        mulmod(z1, z2 , n)\r\n        );\r\n    }\r\n\r\n    function _jSub( uint256 x1,uint256 z1,\r\n        uint256 x2,uint256 z2) internal\r\n    returns(uint256 x3,uint256 z3)\r\n    {\r\n        (x3, z3) = (  addmod( mulmod(z2, x1, n),\r\n            mulmod(n - x2, z1, n),\r\n            n),\r\n        mulmod(z1, z2 , n)\r\n        );\r\n    }\r\n\r\n    function _jMul( uint256 x1,uint256 z1,\r\n        uint256 x2,uint256 z2) internal\r\n    returns(uint256 x3,uint256 z3)\r\n    {\r\n        (x3, z3) = (  mulmod(x1, x2 , n), mulmod(z1, z2 , n));\r\n    }\r\n\r\n    function _jDiv( uint256 x1,uint256 z1,\r\n        uint256 x2,uint256 z2) internal\r\n    returns(uint256 x3,uint256 z3)\r\n    {\r\n        (x3, z3) = (  mulmod(x1, z2 , n), mulmod(z1 , x2 , n));\r\n    }\r\n\r\n    function _inverse( uint256 inewrq) internal\r\n    returns(uint256 invA)\r\n    {\r\n        uint256 t=0;\r\n        uint256 newT=1;\r\n        uint256 r=n;\r\n        uint256 newR=inewrq;\r\n        uint256 q;\r\n        while (newR != 0) {\r\n            q = r / newR;\r\n\r\n            (t, newT) = (newT, addmod(t , (n - mulmod(q, newT,n)) , n));\r\n            (r, newR) = (newR, r - q * newR );\r\n        }\r\n\r\n        return t;\r\n    }\r\n\r\n\r\n    function _ecAdd( uint256 x1,uint256 y1,uint256 z1,\r\n        uint256 x2,uint256 y2,uint256 z2) internal\r\n    returns(uint256 x3,uint256 y3,uint256 z3)\r\n    {\r\n        uint256 l;\r\n        uint256 lz;\r\n        uint256 da;\r\n        uint256 db;\r\n\r\n        if ((x1==0)&&(y1==0)) {\r\n            return (x2,y2,z2);\r\n        }\r\n\r\n        if ((x2==0)&&(y2==0)) {\r\n            return (x1,y1,z1);\r\n        }\r\n\r\n        if ((x1==x2)&&(y1==y2)) {\r\n            (l,lz) = _jMul(x1, z1, x1, z1);\r\n            (l,lz) = _jMul(l, lz, 3, 1);\r\n            (l,lz) = _jAdd(l, lz, a, 1);\r\n\r\n            (da,db) = _jMul(y1, z1, 2, 1);\r\n        } else {\r\n            (l,lz) = _jSub(y2, z2, y1, z1);\r\n            (da,db)  = _jSub(x2, z2, x1, z1);\r\n        }\r\n\r\n        (l, lz) = _jDiv(l, lz, da, db);\r\n\r\n\r\n        (x3, da) = _jMul(l, lz, l, lz);\r\n        (x3, da) = _jSub(x3, da, x1, z1);\r\n        (x3, da) = _jSub(x3, da, x2, z2);\r\n\r\n        (y3, db) = _jSub(x1, z1, x3, da);\r\n        (y3, db) = _jMul(y3, db, l, lz );\r\n        (y3, db) = _jSub(y3, db, y1, z1 );\r\n\r\n\r\n        if (da != db) {\r\n            x3 = mulmod(x3, db, n);\r\n            y3 = mulmod(y3, da, n);\r\n            z3 = mulmod(da, db, n);\r\n        } else {\r\n            z3 = da;\r\n        }\r\n\r\n    }\r\n\r\n    function _ecDouble(uint256 x1,uint256 y1,uint256 z1) internal\r\n    returns(uint256 x3,uint256 y3,uint256 z3)\r\n    {\r\n        (x3,y3,z3) = _ecAdd(x1,y1,z1,x1,y1,z1);\r\n    }\r\n\r\n\r\n\r\n    function _ecMul(uint256 d, uint256 x1,uint256 y1,uint256 z1) internal\r\n    returns(uint256 x3,uint256 y3,uint256 z3)\r\n    {\r\n        uint256 remaining = d;\r\n        uint256 px = x1;\r\n        uint256 py = y1;\r\n        uint256 pz = z1;\r\n        uint256 acx = 0;\r\n        uint256 acy = 0;\r\n        uint256 acz = 1;\r\n\r\n        if (d==0) {\r\n            return (0,0,1);\r\n        }\r\n\r\n        while (remaining != 0) {\r\n            if ((remaining & 1) != 0) {\r\n                (acx,acy,acz) = _ecAdd(acx,acy,acz, px,py,pz);\r\n            }\r\n            remaining = remaining / 2;\r\n            (px,py,pz) = _ecDouble(px,py,pz);\r\n        }\r\n\r\n        (x3,y3,z3) = (acx,acy,acz);\r\n    }\r\n\r\n    function ScalarMult(uint256 px,uint256 py, uint256 scalar) external returns(uint256 qx, uint256 qy){\r\n        uint256 x;\r\n        uint256 y;\r\n        uint256 z;\r\n        (x,y,z) = _ecMul(scalar, px, py, 1);\r\n        z = _inverse(z);\r\n        qx = mulmod(x , z ,n);\r\n        qy = mulmod(y , z ,n);\r\n    }\r\n\r\n    function ScalarBaseMult(uint256 scalar) external returns(uint256 qx, uint256 qy){\r\n        uint256 x;\r\n        uint256 y;\r\n        uint256 z;\r\n        (x,y,z) = _ecMul(scalar, gx, gy, 1);\r\n        z = _inverse(z);\r\n        qx = mulmod(x , z ,n);\r\n        qy = mulmod(y , z ,n);\r\n    }\r\n\r\n    //Used as Hp in Whitepaper CryptoNote 2.0\r\n    //Maps Field element to a Field element of the corresponding Curve.\r\n    //returns a deterministic random point on the Curve\r\n    //note that its overkill to use a cryptographic hash function here..\r\n    function HashToEcc(uint256 x1,uint256 y1) external returns (uint256 qx,uint256 qy){\r\n        uint256 x;\r\n        uint256 y;\r\n        uint256 z;\r\n        (x,y,z) = _ecMul( uint256( keccak256(abi.encodePacked(x1,y1)) ), gx, gy, 1);\r\n        z = _inverse(z);\r\n        qx = mulmod(x , z ,n);\r\n        qy = mulmod(y , z ,n);\r\n    }\r\n\r\n\r\n\r\n    function Add( uint256 x1,uint256 y1,   uint256 x2,uint256 y2) external returns\r\n    (uint256 x3,uint256 y3)\r\n    {\r\n        uint256 x;\r\n        uint256 y;\r\n        uint256 z;\r\n        (x,y,z) = _ecAdd(x1,y1,1,x2,y2,1);\r\n        z = _inverse(z);\r\n        x3 = mulmod(x , z ,n);\r\n        y3 = mulmod(y , z ,n);\r\n\r\n    }\r\n}",
  "sourcePath": "E:\\RingTest\\contracts\\secp256k.sol",
  "compiler": {
    "name": "solc",
    "version": "0.8.10+commit.fc410830.Emscripten.clang"
  },
  "schemaVersion": "3.4.4",
  "updatedAt": "2021-12-25T11:03:22.722Z",
  "devdoc": {
    "kind": "dev",
    "methods": {},
    "version": 1
  },
  "userdoc": {
    "kind": "user",
    "methods": {},
    "version": 1
  }
}