{
  "contractName": "Task",
  "abi": [
    {
      "inputs": [],
      "payable": false,
      "stateMutability": "nonpayable",
      "type": "constructor"
    },
    {
      "constant": false,
      "inputs": [
        {
          "internalType": "string",
          "name": "_title",
          "type": "string"
        },
        {
          "internalType": "string",
          "name": "_descriptionOfTask",
          "type": "string"
        },
        {
          "internalType": "uint256",
          "name": "_numberOfWorkersNeeded",
          "type": "uint256"
        }
      ],
      "name": "addQuestion",
      "outputs": [],
      "payable": true,
      "stateMutability": "payable",
      "type": "function"
    },
    {
      "constant": false,
      "inputs": [],
      "name": "getTitle",
      "outputs": [
        {
          "internalType": "string",
          "name": "",
          "type": "string"
        }
      ],
      "payable": false,
      "stateMutability": "nonpayable",
      "type": "function"
    },
    {
      "constant": false,
      "inputs": [],
      "name": "ifAnswered",
      "outputs": [
        {
          "internalType": "bool",
          "name": "",
          "type": "bool"
        }
      ],
      "payable": false,
      "stateMutability": "nonpayable",
      "type": "function"
    },
    {
      "constant": false,
      "inputs": [
        {
          "internalType": "contract Register",
          "name": "reg",
          "type": "address"
        },
        {
          "internalType": "string",
          "name": "answer",
          "type": "string"
        },
        {
          "internalType": "uint256",
          "name": "c0",
          "type": "uint256"
        },
        {
          "internalType": "uint256[2]",
          "name": "keyImage",
          "type": "uint256[2]"
        },
        {
          "internalType": "uint256[]",
          "name": "s",
          "type": "uint256[]"
        },
        {
          "internalType": "uint256[2][]",
          "name": "publicKeys",
          "type": "uint256[2][]"
        }
      ],
      "name": "answerQuestion",
      "outputs": [],
      "payable": false,
      "stateMutability": "nonpayable",
      "type": "function"
    },
    {
      "constant": false,
      "inputs": [],
      "name": "payAward",
      "outputs": [],
      "payable": false,
      "stateMutability": "nonpayable",
      "type": "function"
    },
    {
      "constant": false,
      "inputs": [],
      "name": "collectAnswers",
      "outputs": [
        {
          "internalType": "string[]",
          "name": "",
          "type": "string[]"
        }
      ],
      "payable": false,
      "stateMutability": "nonpayable",
      "type": "function"
    }
  ],
  "bytecode": "0x60806040523480156200001157600080fd5b506040518060400160405280600781526020017f64656661756c7400000000000000000000000000000000000000000000000000815250600290805190602001906200005f929190620000cc565b506040518060400160405280600781526020017f64656661756c740000000000000000000000000000000000000000000000000081525060039080519060200190620000ad929190620000cc565b506000600681905550600060078190555060006008819055506200017b565b828054600181600116156101000203166002900490600052602060002090601f016020900481019282601f106200010f57805160ff191683800117855562000140565b8280016001018555821562000140579182015b828111156200013f57825182559160200191906001019062000122565b5b5090506200014f919062000153565b5090565b6200017891905b80821115620001745760008160009055506001016200015a565b5090565b90565b6117d9806200018b6000396000f3fe6080604052600436106100555760003560e01c8063240990cb1461005a57806391d9cebe146100765780639a6e7c8e1461009f578063b55afeca146100ca578063f726cff6146100f5578063ff3c1a8f1461010c575b600080fd5b610074600480360361006f9190810190610ccc565b610137565b005b34801561008257600080fd5b5061009d60048036036100989190810190610bfb565b6101fc565b005b3480156100ab57600080fd5b506100b46103f0565b6040516100c191906112d9565b60405180910390f35b3480156100d657600080fd5b506100df610474565b6040516100ec91906112b7565b60405180910390f35b34801561010157600080fd5b5061010a6105fa565b005b34801561011857600080fd5b506101216107b2565b60405161012e919061135c565b60405180910390f35b6000341161017a576040517f08c379a0000000000000000000000000000000000000000000000000000000008152600401610171906113de565b60405180910390fd5b33600160006101000a81548173ffffffffffffffffffffffffffffffffffffffff021916908373ffffffffffffffffffffffffffffffffffffffff16021790555082600290805190602001906101d19291906108ac565b5081600390805190602001906101e89291906108ac565b508060088190555034600781905550505050565b6060859050600073__LSAG__________________________________63fe46a2b283888888886040518663ffffffff1660e01b81526004016102429594939291906112f4565b60206040518083038186803b15801561025a57600080fd5b505af415801561026e573d6000803e3d6000fd5b505050506040513d601f19601f820116820180604052506102929190810190610bd2565b905060011515811515146102db576040517f08c379a00000000000000000000000000000000000000000000000000000000081526004016102d29061141e565b60405180910390fd5b86600460003373ffffffffffffffffffffffffffffffffffffffff1673ffffffffffffffffffffffffffffffffffffffff168152602001908152602001600020908051906020019061032e9291906108ac565b50600587908060018154018082558091505090600182039060005260206000200160009091929091909150908051906020019061036c9291906108ac565b505060003390806001815401808255809150509060018203906000526020600020016000909192909190916101000a81548173ffffffffffffffffffffffffffffffffffffffff021916908373ffffffffffffffffffffffffffffffffffffffff160217905550506006600081548092919060010191905055505050505050505050565b60006040518060200160405280600081525080519060200120600460003373ffffffffffffffffffffffffffffffffffffffff1673ffffffffffffffffffffffffffffffffffffffff16815260200190815260200160002060405161045591906112a0565b6040518091039020141561046c5760019050610471565b600090505b90565b606061047e610854565b6104bd576040517f08c379a00000000000000000000000000000000000000000000000000000000081526004016104b4906113be565b60405180910390fd5b60011515600960009054906101000a900460ff16151514610513576040517f08c379a000000000000000000000000000000000000000000000000000000000815260040161050a9061137e565b60405180910390fd5b6005805480602002602001604051908101604052809291908181526020016000905b828210156105f1578382906000526020600020018054600181600116156101000203166002900480601f0160208091040260200160405190810160405280929190818152602001828054600181600116156101000203166002900480156105dd5780601f106105b2576101008083540402835291602001916105dd565b820191906000526020600020905b8154815290600101906020018083116105c057829003601f168201915b505050505081526020019060010190610535565b50505050905090565b610602610854565b610641576040517f08c379a0000000000000000000000000000000000000000000000000000000008152600401610638906113be565b60405180910390fd5b60001515600960009054906101000a900460ff16151514610697576040517f08c379a000000000000000000000000000000000000000000000000000000000815260040161068e906113fe565b60405180910390fd5b60085460008054905010156106e1576040517f08c379a00000000000000000000000000000000000000000000000000000000081526004016106d89061139e565b60405180910390fd5b6001600960006101000a81548160ff021916908315150217905550600080805490506007548161070d57fe5b04905060008090505b6000805490508110156107ae576000818154811061073057fe5b9060005260206000200160009054906101000a900473ffffffffffffffffffffffffffffffffffffffff1673ffffffffffffffffffffffffffffffffffffffff166108fc839081150290604051600060405180830381858888f193505050501580156107a0573d6000803e3d6000fd5b508080600101915050610716565b5050565b606060028054600181600116156101000203166002900480601f01602080910402602001604051908101604052809291908181526020018280546001816001161561010002031660029004801561084a5780601f1061081f5761010080835404028352916020019161084a565b820191906000526020600020905b81548152906001019060200180831161082d57829003601f168201915b5050505050905090565b6000600160009054906101000a900473ffffffffffffffffffffffffffffffffffffffff1673ffffffffffffffffffffffffffffffffffffffff163373ffffffffffffffffffffffffffffffffffffffff1614905090565b828054600181600116156101000203166002900490600052602060002090601f016020900481019282601f106108ed57805160ff191683800117855561091b565b8280016001018555821561091b579182015b8281111561091a5782518255916020019190600101906108ff565b5b509050610928919061092c565b5090565b61094e91905b8082111561094a576000816000905550600101610932565b5090565b90565b600082601f83011261096257600080fd5b81356109756109708261146b565b61143e565b9150818183526020840193506020810190508385604084028201111561099a57600080fd5b60005b838110156109ca57816109b088826109d4565b84526020840193506040830192505060018101905061099d565b5050505092915050565b600082601f8301126109e557600080fd5b60026109f86109f382611493565b61143e565b91508183856020840282011115610a0e57600080fd5b60005b83811015610a3e5781610a248882610bbd565b845260208401935060208301925050600181019050610a11565b5050505092915050565b600082601f830112610a5957600080fd5b6002610a6c610a67826114b5565b61143e565b91508183856020840282011115610a8257600080fd5b60005b83811015610ab25781610a988882610bbd565b845260208401935060208301925050600181019050610a85565b5050505092915050565b600082601f830112610acd57600080fd5b8135610ae0610adb826114d7565b61143e565b91508181835260208401935060208101905083856020840282011115610b0557600080fd5b60005b83811015610b355781610b1b8882610bbd565b845260208401935060208301925050600181019050610b08565b5050505092915050565b600081519050610b4e81611751565b92915050565b600081359050610b6381611768565b92915050565b600082601f830112610b7a57600080fd5b8135610b8d610b88826114ff565b61143e565b91508082526020830160208301858383011115610ba957600080fd5b610bb48382846116fe565b50505092915050565b600081359050610bcc8161177f565b92915050565b600060208284031215610be457600080fd5b6000610bf284828501610b3f565b91505092915050565b60008060008060008060e08789031215610c1457600080fd5b6000610c2289828a01610b54565b965050602087013567ffffffffffffffff811115610c3f57600080fd5b610c4b89828a01610b69565b9550506040610c5c89828a01610bbd565b9450506060610c6d89828a01610a48565b93505060a087013567ffffffffffffffff811115610c8a57600080fd5b610c9689828a01610abc565b92505060c087013567ffffffffffffffff811115610cb357600080fd5b610cbf89828a01610951565b9150509295509295509295565b600080600060608486031215610ce157600080fd5b600084013567ffffffffffffffff811115610cfb57600080fd5b610d0786828701610b69565b935050602084013567ffffffffffffffff811115610d2457600080fd5b610d3086828701610b69565b9250506040610d4186828701610bbd565b9150509250925092565b6000610d578383610eb9565b60408301905092915050565b6000610d6f838361107d565b905092915050565b6000610d838383611291565b60208301905092915050565b6000610d9a82611584565b610da4818561161d565b9350610daf8361152b565b8060005b83811015610de0578151610dc78882610d4b565b9750610dd2836115dc565b925050600181019050610db3565b5085935050505092915050565b6000610df88261158f565b610e02818561162e565b935083602082028501610e148561153b565b8060005b85811015610e505784840389528151610e318582610d63565b9450610e3c836115e9565b925060208a01995050600181019050610e18565b50829750879550505050505092915050565b610e6b816115a5565b610e75818461163f565b9250610e8082611555565b8060005b83811015610eb1578151610e988782610d77565b9650610ea383611603565b925050600181019050610e84565b505050505050565b610ec28161159a565b610ecc818461164a565b9250610ed78261154b565b8060005b83811015610f08578151610eef8782610d77565b9650610efa836115f6565b925050600181019050610edb565b505050505050565b6000610f1b826115b0565b610f258185611655565b9350610f308361155f565b8060005b83811015610f61578151610f488882610d77565b9750610f5383611610565b925050600181019050610f34565b5085935050505092915050565b610f77816116b6565b82525050565b6000610f88826115bb565b610f928185611666565b9350610fa281856020860161170d565b610fab81611740565b840191505092915050565b600081546001811660008114610fd35760018114610ff85761103c565b607f6002830416610fe48187611677565b955060ff198316865280860193505061103c565b600282046110068187611677565b95506110118561156f565b60005b8281101561103357815481890152600182019150602081019050611014565b82880195505050505b505092915050565b600061104f826115d1565b6110598185611693565b935061106981856020860161170d565b61107281611740565b840191505092915050565b6000611088826115c6565b6110928185611682565b93506110a281856020860161170d565b6110ab81611740565b840191505092915050565b60006110c3601b83611693565b91507f596f7520686176656e27742070617920746865206177617264732100000000006000830152602082019050919050565b6000611103602583611693565b91507f54686572652069736e277420656e6f756768206e756d626572206f6620616e7360008301527f77657273210000000000000000000000000000000000000000000000000000006020830152604082019050919050565b6000611169601b83611693565b91507f4f6e6c79207265717565737465722063616e20646f20746861742100000000006000830152602082019050919050565b60006111a9601083611693565b91507f4d757374206861766520617761726421000000000000000000000000000000006000830152602082019050919050565b60006111e9601f83611693565b91507f596f75206861766520636f6c6c65637465642074686520616e737765727321006000830152602082019050919050565b6000611229603e83611693565b91507f5468652075736572206861736e27742072656769737465642c206f722074686560008301527f207573657220686173207375626d697474656420616e20616e737765722100006020830152604082019050919050565b61128b816116f4565b82525050565b61129a816116f4565b82525050565b60006112ac8284610fb6565b915081905092915050565b600060208201905081810360008301526112d18184610ded565b905092915050565b60006020820190506112ee6000830184610f6e565b92915050565b600060c082019050818103600083015261130e8188610f7d565b905061131d6020830187611282565b61132a6040830186610e62565b818103608083015261133c8185610f10565b905081810360a08301526113508184610d8f565b90509695505050505050565b600060208201905081810360008301526113768184611044565b905092915050565b60006020820190508181036000830152611397816110b6565b9050919050565b600060208201905081810360008301526113b7816110f6565b9050919050565b600060208201905081810360008301526113d78161115c565b9050919050565b600060208201905081810360008301526113f78161119c565b9050919050565b60006020820190508181036000830152611417816111dc565b9050919050565b600060208201905081810360008301526114378161121c565b9050919050565b6000604051905081810181811067ffffffffffffffff8211171561146157600080fd5b8060405250919050565b600067ffffffffffffffff82111561148257600080fd5b602082029050602081019050919050565b600067ffffffffffffffff8211156114aa57600080fd5b602082029050919050565b600067ffffffffffffffff8211156114cc57600080fd5b602082029050919050565b600067ffffffffffffffff8211156114ee57600080fd5b602082029050602081019050919050565b600067ffffffffffffffff82111561151657600080fd5b601f19601f8301169050602081019050919050565b6000819050602082019050919050565b6000819050602082019050919050565b6000819050919050565b6000819050919050565b6000819050602082019050919050565b60008190508160005260206000209050919050565b600081519050919050565b600081519050919050565b600060029050919050565b600060029050919050565b600081519050919050565b600081519050919050565b600081519050919050565b600081519050919050565b6000602082019050919050565b6000602082019050919050565b6000602082019050919050565b6000602082019050919050565b6000602082019050919050565b600082825260208201905092915050565b600082825260208201905092915050565b600081905092915050565b600081905092915050565b600082825260208201905092915050565b600082825260208201905092915050565b600081905092915050565b600082825260208201905092915050565b600082825260208201905092915050565b60006116af826116d4565b9050919050565b60008115159050919050565b60006116cd826116a4565b9050919050565b600073ffffffffffffffffffffffffffffffffffffffff82169050919050565b6000819050919050565b82818337600083830152505050565b60005b8381101561172b578082015181840152602081019050611710565b8381111561173a576000848401525b50505050565b6000601f19601f8301169050919050565b61175a816116b6565b811461176557600080fd5b50565b611771816116c2565b811461177c57600080fd5b50565b611788816116f4565b811461179357600080fd5b5056fea365627a7a7231582047837c6ffd15e8e8f161bcbfbf3a8f13985d411ceba8e0e0c72647548c2300156c6578706572696d656e74616cf564736f6c63430005110040",
  "source": "pragma solidity >=0.5.0 <0.6.0;\r\npragma experimental ABIEncoderV2;\r\nimport \"./Register.sol\";\r\nimport \"./LSAG.sol\";\r\n\r\ncontract Task{\r\n    address payable[] workers;   // 记录workers，方便转账\r\n    address requester;  // 记录 requester\r\n    string title;   // 任务标题\r\n    string descriptionOfTask;    // 任务描述\r\n    mapping(address => string) answerList;  // 答案列表\r\n    string[] list;\r\n    uint answerCount;   // 已完成答案数\r\n    uint award;    // 酬金\r\n    uint numberOfWorkersNeeded;   // 需要完成的工人数\r\n    bool finished;  //requester是否已经获取答案\r\n\r\n    modifier onlyRequester {    // 创建限定符\r\n        require(isRequester(), \"Only requester can do that!\");\r\n        _;\r\n    }\r\n\r\n    constructor() public {\r\n        title = \"default\";\r\n        descriptionOfTask = \"default\";\r\n        answerCount = 0;\r\n        award = 0;\r\n        numberOfWorkersNeeded = 0;\r\n    }\r\n\r\n    function addQuestion(string memory _title, string memory _descriptionOfTask, uint _numberOfWorkersNeeded) payable public {\r\n        require(msg.value > 0 ether, \"Must have award!\"); // 必须预存酬金\r\n        requester = msg.sender;\r\n        title = _title;\r\n        descriptionOfTask = _descriptionOfTask;\r\n        numberOfWorkersNeeded = _numberOfWorkersNeeded;\r\n        award = msg.value;\r\n    }\r\n\r\n    function getTitle() public returns(string memory) {\r\n        return title;\r\n    }\r\n\r\n    function ifAnswered() public returns(bool){\r\n        if (keccak256(bytes(answerList[msg.sender]))  == keccak256(bytes(\"\")))\r\n            return true;\r\n        return false;\r\n    }\r\n\r\n    // 回答问题\r\n    function answerQuestion(\r\n        Register reg,\r\n        string memory answer,\r\n        uint256 c0,\r\n        uint256[2] memory keyImage,\r\n        uint256[] memory s,\r\n        uint256[2][] memory publicKeys\r\n    ) public {\r\n        bytes memory message = bytes(answer);\r\n        bool isVerified = LSAG.verify(\r\n            message,\r\n            c0,\r\n            keyImage,\r\n            s,\r\n            publicKeys\r\n        );\r\n        require(isVerified == true, \"The user hasn't registed, or the user has submitted an answer!\");\r\n        answerList[msg.sender] = answer;\r\n        list.push(answer);\r\n        workers.push(msg.sender);\r\n        answerCount++;\r\n    }\r\n\r\n    function payAward() onlyRequester public {\r\n        require(finished == false, \"You have collected the answers!\");\r\n        require(workers.length >= numberOfWorkersNeeded, \"There isn't enough number of answers!\");\r\n        finished = true;\r\n        uint unitAward = award / workers.length;\r\n        for (uint i = 0; i < workers.length; i++) {\r\n            workers[i].transfer(unitAward);\r\n        }\r\n    }\r\n\r\n    // 收集答案\r\n    function collectAnswers() onlyRequester public returns(string[] memory) {\r\n        require(finished == true, \"You haven't pay the awards!\");\r\n        return list;\r\n    }\r\n\r\n    function isRequester() view private returns(bool) { //  对外不可见\r\n        return msg.sender == requester;\r\n    }\r\n}\r\n",
  "sourcePath": "E:\\RingTest\\contracts\\Task.sol",
  "compiler": {
    "name": "solc",
    "version": "0.5.17+commit.d19bba13.Emscripten.clang"
  },
  "schemaVersion": "3.4.4",
  "updatedAt": "2021-12-31T08:19:46.293Z",
  "devdoc": {
    "methods": {}
  },
  "userdoc": {
    "methods": {}
  }
}