{
  "contractName": "Task",
  "abi": [
    {
      "inputs": [],
      "payable": false,
      "stateMutability": "nonpayable",
      "type": "constructor"
    },
    {
      "constant": false,
      "inputs": [
        {
          "internalType": "string",
          "name": "_title",
          "type": "string"
        },
        {
          "internalType": "string",
          "name": "_descriptionOfTask",
          "type": "string"
        },
        {
          "internalType": "uint256",
          "name": "_numberOfWorkersNeeded",
          "type": "uint256"
        }
      ],
      "name": "addQuestion",
      "outputs": [],
      "payable": true,
      "stateMutability": "payable",
      "type": "function"
    },
    {
      "constant": false,
      "inputs": [],
      "name": "getTitle",
      "outputs": [
        {
          "internalType": "string",
          "name": "",
          "type": "string"
        }
      ],
      "payable": false,
      "stateMutability": "nonpayable",
      "type": "function"
    },
    {
      "constant": false,
      "inputs": [
        {
          "internalType": "string",
          "name": "sender",
          "type": "string"
        }
      ],
      "name": "ifAnswered",
      "outputs": [
        {
          "internalType": "bool",
          "name": "",
          "type": "bool"
        }
      ],
      "payable": false,
      "stateMutability": "nonpayable",
      "type": "function"
    },
    {
      "constant": false,
      "inputs": [
        {
          "internalType": "contract Register",
          "name": "reg",
          "type": "address"
        },
        {
          "internalType": "string",
          "name": "user",
          "type": "string"
        },
        {
          "internalType": "string",
          "name": "_answer",
          "type": "string"
        }
      ],
      "name": "answerQuestion",
      "outputs": [],
      "payable": false,
      "stateMutability": "nonpayable",
      "type": "function"
    },
    {
      "constant": false,
      "inputs": [],
      "name": "payAward",
      "outputs": [],
      "payable": false,
      "stateMutability": "nonpayable",
      "type": "function"
    },
    {
      "constant": false,
      "inputs": [],
      "name": "collectAnswers",
      "outputs": [
        {
          "internalType": "string[]",
          "name": "",
          "type": "string[]"
        }
      ],
      "payable": false,
      "stateMutability": "nonpayable",
      "type": "function"
    }
  ],
  "bytecode": "0x60806040523480156200001157600080fd5b506040518060400160405280600781526020017f64656661756c7400000000000000000000000000000000000000000000000000815250600290805190602001906200005f929190620000d4565b506040518060400160405280600781526020017f64656661756c740000000000000000000000000000000000000000000000000081525060039080519060200190620000ad929190620000d4565b50600060068190555060006007819055506000600881905550600060098190555062000183565b828054600181600116156101000203166002900490600052602060002090601f016020900481019282601f106200011757805160ff191683800117855562000148565b8280016001018555821562000148579182015b82811115620001475782518255916020019190600101906200012a565b5b5090506200015791906200015b565b5090565b6200018091905b808211156200017c57600081600090555060010162000162565b5090565b90565b61129080620001936000396000f3fe6080604052600436106100555760003560e01c8063240990cb1461005a5780632954d31414610076578063b55afeca1461009f578063bd29fab1146100ca578063f726cff614610107578063ff3c1a8f1461011e575b600080fd5b610074600480360361006f9190810190610acb565b610149565b005b34801561008257600080fd5b5061009d60048036036100989190810190610a0b565b61020e565b005b3480156100ab57600080fd5b506100b461040d565b6040516100c19190610f27565b60405180910390f35b3480156100d657600080fd5b506100f160048036036100ec9190810190610a8a565b610593565b6040516100fe9190610f49565b60405180910390f35b34801561011357600080fd5b5061011c6105f8565b005b34801561012a57600080fd5b506101336107b0565b6040516101409190610f64565b60405180910390f35b6000341161018c576040517f08c379a000000000000000000000000000000000000000000000000000000000815260040161018390611026565b60405180910390fd5b33600160006101000a81548173ffffffffffffffffffffffffffffffffffffffff021916908373ffffffffffffffffffffffffffffffffffffffff16021790555082600290805190602001906101e39291906108aa565b5081600390805190602001906101fa9291906108aa565b508060088190555034600781905550505050565b8273ffffffffffffffffffffffffffffffffffffffff166305bbd7e0836040518263ffffffff1660e01b81526004016102479190610f64565b60206040518083038186803b15801561025f57600080fd5b505afa158015610273573d6000803e3d6000fd5b505050506040513d601f19601f8201168201806040525061029791908101906109e2565b6102d6576040517f08c379a00000000000000000000000000000000000000000000000000000000081526004016102cd90610fa6565b60405180910390fd5b6102df82610593565b61031e576040517f08c379a000000000000000000000000000000000000000000000000000000000815260040161031590610f86565b60405180910390fd5b8060048360405161032f9190610f10565b908152602001604051809103902090805190602001906103509291906108aa565b50600581908060018154018082558091505090600182039060005260206000200160009091929091909150908051906020019061038e9291906108aa565b505060003390806001815401808255809150509060018203906000526020600020016000909192909190916101000a81548173ffffffffffffffffffffffffffffffffffffffff021916908373ffffffffffffffffffffffffffffffffffffffff16021790555050600660008154809291906001019190505550505050565b6060610417610852565b610456576040517f08c379a000000000000000000000000000000000000000000000000000000000815260040161044d90611006565b60405180910390fd5b60011515600a60009054906101000a900460ff161515146104ac576040517f08c379a00000000000000000000000000000000000000000000000000000000081526004016104a390610fc6565b60405180910390fd5b6005805480602002602001604051908101604052809291908181526020016000905b8282101561058a578382906000526020600020018054600181600116156101000203166002900480601f0160208091040260200160405190810160405280929190818152602001828054600181600116156101000203166002900480156105765780601f1061054b57610100808354040283529160200191610576565b820191906000526020600020905b81548152906001019060200180831161055957829003601f168201915b5050505050815260200190600101906104ce565b50505050905090565b600060405180602001604052806000815250805190602001206004836040516105bc9190610f10565b90815260200160405180910390206040516105d79190610ef9565b604051809103902014156105ee57600190506105f3565b600090505b919050565b610600610852565b61063f576040517f08c379a000000000000000000000000000000000000000000000000000000000815260040161063690611006565b60405180910390fd5b60001515600a60009054906101000a900460ff16151514610695576040517f08c379a000000000000000000000000000000000000000000000000000000000815260040161068c90611046565b60405180910390fd5b60085460008054905010156106df576040517f08c379a00000000000000000000000000000000000000000000000000000000081526004016106d690610fe6565b60405180910390fd5b6001600a60006101000a81548160ff021916908315150217905550600080805490506007548161070b57fe5b04905060008090505b6000805490508110156107ac576000818154811061072e57fe5b9060005260206000200160009054906101000a900473ffffffffffffffffffffffffffffffffffffffff1673ffffffffffffffffffffffffffffffffffffffff166108fc839081150290604051600060405180830381858888f1935050505015801561079e573d6000803e3d6000fd5b508080600101915050610714565b5050565b606060028054600181600116156101000203166002900480601f0160208091040260200160405190810160405280929190818152602001828054600181600116156101000203166002900480156108485780601f1061081d57610100808354040283529160200191610848565b820191906000526020600020905b81548152906001019060200180831161082b57829003601f168201915b5050505050905090565b6000600160009054906101000a900473ffffffffffffffffffffffffffffffffffffffff1673ffffffffffffffffffffffffffffffffffffffff163373ffffffffffffffffffffffffffffffffffffffff1614905090565b828054600181600116156101000203166002900490600052602060002090601f016020900481019282601f106108eb57805160ff1916838001178555610919565b82800160010185558215610919579182015b828111156109185782518255916020019190600101906108fd565b5b509050610926919061092a565b5090565b61094c91905b80821115610948576000816000905550600101610930565b5090565b90565b60008151905061095e81611208565b92915050565b6000813590506109738161121f565b92915050565b600082601f83011261098a57600080fd5b813561099d61099882611093565b611066565b915080825260208301602083018583830111156109b957600080fd5b6109c48382846111b5565b50505092915050565b6000813590506109dc81611236565b92915050565b6000602082840312156109f457600080fd5b6000610a028482850161094f565b91505092915050565b600080600060608486031215610a2057600080fd5b6000610a2e86828701610964565b935050602084013567ffffffffffffffff811115610a4b57600080fd5b610a5786828701610979565b925050604084013567ffffffffffffffff811115610a7457600080fd5b610a8086828701610979565b9150509250925092565b600060208284031215610a9c57600080fd5b600082013567ffffffffffffffff811115610ab657600080fd5b610ac284828501610979565b91505092915050565b600080600060608486031215610ae057600080fd5b600084013567ffffffffffffffff811115610afa57600080fd5b610b0686828701610979565b935050602084013567ffffffffffffffff811115610b2357600080fd5b610b2f86828701610979565b9250506040610b40868287016109cd565b9150509250925092565b6000610b568383610cda565b905092915050565b6000610b69826110e4565b610b738185611112565b935083602082028501610b85856110bf565b8060005b85811015610bc15784840389528151610ba28582610b4a565b9450610bad83611105565b925060208a01995050600181019050610b89565b50829750879550505050505092915050565b610bdc8161116d565b82525050565b600081546001811660008114610bff5760018114610c2457610c68565b607f6002830416610c108187611123565b955060ff1983168652808601935050610c68565b60028204610c328187611123565b9550610c3d856110cf565b60005b82811015610c5f57815481890152600182019150602081019050610c40565b82880195505050505b505092915050565b6000610c7b826110fa565b610c85818561113f565b9350610c958185602086016111c4565b610c9e816111f7565b840191505092915050565b6000610cb4826110fa565b610cbe8185611150565b9350610cce8185602086016111c4565b80840191505092915050565b6000610ce5826110ef565b610cef818561112e565b9350610cff8185602086016111c4565b610d08816111f7565b840191505092915050565b6000610d20601d8361113f565b91507f4d757374206e6f74207375626d697474656420616e20616e73776572210000006000830152602082019050919050565b6000610d60600f8361113f565b91507f4d757374206265206120757365722100000000000000000000000000000000006000830152602082019050919050565b6000610da0601b8361113f565b91507f596f7520686176656e27742070617920746865206177617264732100000000006000830152602082019050919050565b6000610de060258361113f565b91507f54686572652069736e277420656e6f756768206e756d626572206f6620616e7360008301527f77657273210000000000000000000000000000000000000000000000000000006020830152604082019050919050565b6000610e46601b8361113f565b91507f4f6e6c79207265717565737465722063616e20646f20746861742100000000006000830152602082019050919050565b6000610e8660108361113f565b91507f4d757374206861766520617761726421000000000000000000000000000000006000830152602082019050919050565b6000610ec6601f8361113f565b91507f596f75206861766520636f6c6c65637465642074686520616e737765727321006000830152602082019050919050565b6000610f058284610be2565b915081905092915050565b6000610f1c8284610ca9565b915081905092915050565b60006020820190508181036000830152610f418184610b5e565b905092915050565b6000602082019050610f5e6000830184610bd3565b92915050565b60006020820190508181036000830152610f7e8184610c70565b905092915050565b60006020820190508181036000830152610f9f81610d13565b9050919050565b60006020820190508181036000830152610fbf81610d53565b9050919050565b60006020820190508181036000830152610fdf81610d93565b9050919050565b60006020820190508181036000830152610fff81610dd3565b9050919050565b6000602082019050818103600083015261101f81610e39565b9050919050565b6000602082019050818103600083015261103f81610e79565b9050919050565b6000602082019050818103600083015261105f81610eb9565b9050919050565b6000604051905081810181811067ffffffffffffffff8211171561108957600080fd5b8060405250919050565b600067ffffffffffffffff8211156110aa57600080fd5b601f19601f8301169050602081019050919050565b6000819050602082019050919050565b60008190508160005260206000209050919050565b600081519050919050565b600081519050919050565b600081519050919050565b6000602082019050919050565b600082825260208201905092915050565b600081905092915050565b600082825260208201905092915050565b600082825260208201905092915050565b600081905092915050565b60006111668261118b565b9050919050565b60008115159050919050565b60006111848261115b565b9050919050565b600073ffffffffffffffffffffffffffffffffffffffff82169050919050565b6000819050919050565b82818337600083830152505050565b60005b838110156111e25780820151818401526020810190506111c7565b838111156111f1576000848401525b50505050565b6000601f19601f8301169050919050565b6112118161116d565b811461121c57600080fd5b50565b61122881611179565b811461123357600080fd5b50565b61123f816111ab565b811461124a57600080fd5b5056fea365627a7a723158206fcabe7e20bf0ed4e386aff0d4d1632ae8ecaccf9c81e5189bfba4c076a6e4156c6578706572696d656e74616cf564736f6c63430005110040",
  "source": "pragma solidity >=0.5.0 <0.6.0;\r\npragma experimental ABIEncoderV2;\r\nimport \"./Register.sol\";\r\n\r\ncontract Task{\r\n    address payable[] workers;   // 记录workers，方便转账\r\n    address requester;  // 记录 requester\r\n    string title;   // 任务标题\r\n    string descriptionOfTask;    // 任务描述\r\n    mapping(string => string) answerList;  // 答案列表\r\n    string[] list;\r\n    uint answerCount;   // 已完成答案数\r\n    uint award;    // 酬金\r\n    uint numberOfWorkersNeeded;   // 需要完成的工人数\r\n    uint unitAward; // 单个工人获得的酬金数\r\n    bool finished;  //requester是否已经获取答案\r\n\r\n    modifier onlyRequester {    // 创建限定符\r\n        require(isRequester(), \"Only requester can do that!\");\r\n        _;\r\n    }\r\n\r\n    constructor() public {\r\n        title = \"default\";\r\n        descriptionOfTask = \"default\";\r\n        answerCount = 0;\r\n        award = 0;\r\n        numberOfWorkersNeeded = 0;\r\n        unitAward = 0;\r\n    }\r\n\r\n    function addQuestion(string memory _title, string memory _descriptionOfTask, uint _numberOfWorkersNeeded) payable public {\r\n        require(msg.value > 0 ether, \"Must have award!\"); // 必须预存酬金\r\n        requester = msg.sender;\r\n        title = _title;\r\n        descriptionOfTask = _descriptionOfTask;\r\n        numberOfWorkersNeeded = _numberOfWorkersNeeded;\r\n        award = msg.value;\r\n    }\r\n\r\n    function getTitle() public returns(string memory) {\r\n        return title;\r\n    }\r\n\r\n    function ifAnswered(string memory sender) public returns(bool){\r\n        if (keccak256(bytes(answerList[sender]))  == keccak256(bytes(\"\")))\r\n            return true;\r\n        return false;\r\n    }\r\n\r\n    // 回答问题\r\n    function answerQuestion(Register reg, string memory user, string memory _answer) public {\r\n        require(reg.isUser(user), \"Must be a user!\");\r\n        require(ifAnswered(user), \"Must not submitted an answer!\");\r\n        answerList[user] = _answer;\r\n        list.push(_answer);\r\n        workers.push(msg.sender);\r\n        answerCount++;\r\n    }\r\n\r\n    function payAward() onlyRequester public {\r\n        require(finished == false, \"You have collected the answers!\");\r\n        require(workers.length >= numberOfWorkersNeeded, \"There isn't enough number of answers!\");\r\n        finished = true;\r\n        uint unitAward = award / workers.length;\r\n        for (uint i = 0; i < workers.length; i++) {\r\n            workers[i].transfer(unitAward);\r\n        }\r\n    }\r\n\r\n    // 收集答案\r\n    function collectAnswers() onlyRequester public returns(string[] memory) {\r\n        require(finished == true, \"You haven't pay the awards!\");\r\n        return list;\r\n    }\r\n\r\n    function isRequester() view private returns(bool) { //  对外不可见\r\n        return msg.sender == requester;\r\n    }\r\n}\r\n",
  "sourcePath": "E:\\RingTest\\contracts\\Task.sol",
  "compiler": {
    "name": "solc",
    "version": "0.5.17+commit.d19bba13.Emscripten.clang"
  },
  "schemaVersion": "3.4.4",
  "updatedAt": "2021-12-31T06:43:22.021Z",
  "networkType": "ethereum",
  "devdoc": {
    "methods": {}
  },
  "userdoc": {
    "methods": {}
  }
}