{
  "contractName": "Task",
  "abi": [
    {
      "inputs": [],
      "payable": false,
      "stateMutability": "nonpayable",
      "type": "constructor"
    },
    {
      "constant": false,
      "inputs": [
        {
          "internalType": "string",
          "name": "_title",
          "type": "string"
        },
        {
          "internalType": "string",
          "name": "_descriptionOfTask",
          "type": "string"
        },
        {
          "internalType": "uint256",
          "name": "_numberOfWorkersNeeded",
          "type": "uint256"
        }
      ],
      "name": "addQuestion",
      "outputs": [],
      "payable": true,
      "stateMutability": "payable",
      "type": "function"
    },
    {
      "constant": false,
      "inputs": [],
      "name": "getTitle",
      "outputs": [
        {
          "internalType": "string",
          "name": "",
          "type": "string"
        }
      ],
      "payable": false,
      "stateMutability": "nonpayable",
      "type": "function"
    },
    {
      "constant": false,
      "inputs": [],
      "name": "ifAnswered",
      "outputs": [
        {
          "internalType": "bool",
          "name": "",
          "type": "bool"
        }
      ],
      "payable": false,
      "stateMutability": "nonpayable",
      "type": "function"
    },
    {
      "constant": false,
      "inputs": [
        {
          "internalType": "uint256[2][]",
          "name": "_publicKeys",
          "type": "uint256[2][]"
        },
        {
          "internalType": "string",
          "name": "answer",
          "type": "string"
        },
        {
          "internalType": "uint256",
          "name": "c0",
          "type": "uint256"
        },
        {
          "internalType": "uint256[2]",
          "name": "keyImage",
          "type": "uint256[2]"
        },
        {
          "internalType": "uint256[]",
          "name": "s",
          "type": "uint256[]"
        }
      ],
      "name": "answerQuestion",
      "outputs": [],
      "payable": false,
      "stateMutability": "nonpayable",
      "type": "function"
    },
    {
      "constant": false,
      "inputs": [],
      "name": "payAward",
      "outputs": [],
      "payable": false,
      "stateMutability": "nonpayable",
      "type": "function"
    },
    {
      "constant": false,
      "inputs": [],
      "name": "collectAnswers",
      "outputs": [
        {
          "internalType": "string[]",
          "name": "",
          "type": "string[]"
        }
      ],
      "payable": false,
      "stateMutability": "nonpayable",
      "type": "function"
    }
  ],
  "bytecode": "0x60806040523480156200001157600080fd5b506040518060400160405280600781526020017f64656661756c7400000000000000000000000000000000000000000000000000815250600290805190602001906200005f929190620000cc565b506040518060400160405280600781526020017f64656661756c740000000000000000000000000000000000000000000000000081525060039080519060200190620000ad929190620000cc565b506000600681905550600060078190555060006008819055506200017b565b828054600181600116156101000203166002900490600052602060002090601f016020900481019282601f106200010f57805160ff191683800117855562000140565b8280016001018555821562000140579182015b828111156200013f57825182559160200191906001019062000122565b5b5090506200014f919062000153565b5090565b6200017891905b80821115620001745760008160009055506001016200015a565b5090565b90565b61168f806200018b6000396000f3fe6080604052600436106100555760003560e01c8063240990cb1461005a5780636710b1da146100765780639a6e7c8e1461009f578063b55afeca146100ca578063f726cff6146100f5578063ff3c1a8f1461010c575b600080fd5b610074600480360361006f9190810190610c63565b610137565b005b34801561008257600080fd5b5061009d60048036036100989190810190610b7b565b6101fc565b005b3480156100ab57600080fd5b506100b46103ae565b6040516100c19190611272565b60405180910390f35b3480156100d657600080fd5b506100df610432565b6040516100ec9190611250565b60405180910390f35b34801561010157600080fd5b5061010a6105b8565b005b34801561011857600080fd5b50610121610770565b60405161012e919061128d565b60405180910390f35b6000341161017a576040517f08c379a00000000000000000000000000000000000000000000000000000000081526004016101719061130f565b60405180910390fd5b33600160006101000a81548173ffffffffffffffffffffffffffffffffffffffff021916908373ffffffffffffffffffffffffffffffffffffffff16021790555082600290805190602001906101d192919061086a565b5081600390805190602001906101e892919061086a565b508060088190555034600781905550505050565b60608490506060869050600073__LSAG__________________________________63d38dd6cd83858989896040518663ffffffff1660e01b81526004016102479594939291906111e8565b60206040518083038186803b15801561025f57600080fd5b505af4158015610273573d6000803e3d6000fd5b505050506040513d601f19601f820116820180604052506102979190810190610c3a565b905086600460003373ffffffffffffffffffffffffffffffffffffffff1673ffffffffffffffffffffffffffffffffffffffff16815260200190815260200160002090805190602001906102ec92919061086a565b50600587908060018154018082558091505090600182039060005260206000200160009091929091909150908051906020019061032a92919061086a565b505060003390806001815401808255809150509060018203906000526020600020016000909192909190916101000a81548173ffffffffffffffffffffffffffffffffffffffff021916908373ffffffffffffffffffffffffffffffffffffffff160217905550506006600081548092919060010191905055505050505050505050565b60006040518060200160405280600081525080519060200120600460003373ffffffffffffffffffffffffffffffffffffffff1673ffffffffffffffffffffffffffffffffffffffff16815260200190815260200160002060405161041391906111d1565b6040518091039020141561042a576001905061042f565b600090505b90565b606061043c610812565b61047b576040517f08c379a0000000000000000000000000000000000000000000000000000000008152600401610472906112ef565b60405180910390fd5b60011515600960009054906101000a900460ff161515146104d1576040517f08c379a00000000000000000000000000000000000000000000000000000000081526004016104c8906112af565b60405180910390fd5b6005805480602002602001604051908101604052809291908181526020016000905b828210156105af578382906000526020600020018054600181600116156101000203166002900480601f01602080910402602001604051908101604052809291908181526020018280546001816001161561010002031660029004801561059b5780601f106105705761010080835404028352916020019161059b565b820191906000526020600020905b81548152906001019060200180831161057e57829003601f168201915b5050505050815260200190600101906104f3565b50505050905090565b6105c0610812565b6105ff576040517f08c379a00000000000000000000000000000000000000000000000000000000081526004016105f6906112ef565b60405180910390fd5b60001515600960009054906101000a900460ff16151514610655576040517f08c379a000000000000000000000000000000000000000000000000000000000815260040161064c9061132f565b60405180910390fd5b600854600080549050101561069f576040517f08c379a0000000000000000000000000000000000000000000000000000000008152600401610696906112cf565b60405180910390fd5b6001600960006101000a81548160ff02191690831515021790555060008080549050600754816106cb57fe5b04905060008090505b60008054905081101561076c57600081815481106106ee57fe5b9060005260206000200160009054906101000a900473ffffffffffffffffffffffffffffffffffffffff1673ffffffffffffffffffffffffffffffffffffffff166108fc839081150290604051600060405180830381858888f1935050505015801561075e573d6000803e3d6000fd5b5080806001019150506106d4565b5050565b606060028054600181600116156101000203166002900480601f0160208091040260200160405190810160405280929190818152602001828054600181600116156101000203166002900480156108085780601f106107dd57610100808354040283529160200191610808565b820191906000526020600020905b8154815290600101906020018083116107eb57829003601f168201915b5050505050905090565b6000600160009054906101000a900473ffffffffffffffffffffffffffffffffffffffff1673ffffffffffffffffffffffffffffffffffffffff163373ffffffffffffffffffffffffffffffffffffffff1614905090565b828054600181600116156101000203166002900490600052602060002090601f016020900481019282601f106108ab57805160ff19168380011785556108d9565b828001600101855582156108d9579182015b828111156108d85782518255916020019190600101906108bd565b5b5090506108e691906108ea565b5090565b61090c91905b808211156109085760008160009055506001016108f0565b5090565b90565b600082601f83011261092057600080fd5b813561093361092e8261137c565b61134f565b9150818183526020840193506020810190508385604084028201111561095857600080fd5b60005b83811015610988578161096e8882610992565b84526020840193506040830192505060018101905061095b565b5050505092915050565b600082601f8301126109a357600080fd5b60026109b66109b1826113a4565b61134f565b915081838560208402820111156109cc57600080fd5b60005b838110156109fc57816109e28882610b66565b8452602084019350602083019250506001810190506109cf565b5050505092915050565b600082601f830112610a1757600080fd5b6002610a2a610a25826113c6565b61134f565b91508183856020840282011115610a4057600080fd5b60005b83811015610a705781610a568882610b66565b845260208401935060208301925050600181019050610a43565b5050505092915050565b600082601f830112610a8b57600080fd5b8135610a9e610a99826113e8565b61134f565b91508181835260208401935060208101905083856020840282011115610ac357600080fd5b60005b83811015610af35781610ad98882610b66565b845260208401935060208301925050600181019050610ac6565b5050505092915050565b600081519050610b0c8161161e565b92915050565b600082601f830112610b2357600080fd5b8135610b36610b3182611410565b61134f565b91508082526020830160208301858383011115610b5257600080fd5b610b5d8382846115cb565b50505092915050565b600081359050610b7581611635565b92915050565b600080600080600060c08688031215610b9357600080fd5b600086013567ffffffffffffffff811115610bad57600080fd5b610bb98882890161090f565b955050602086013567ffffffffffffffff811115610bd657600080fd5b610be288828901610b12565b9450506040610bf388828901610b66565b9350506060610c0488828901610a06565b92505060a086013567ffffffffffffffff811115610c2157600080fd5b610c2d88828901610a7a565b9150509295509295909350565b600060208284031215610c4c57600080fd5b6000610c5a84828501610afd565b91505092915050565b600080600060608486031215610c7857600080fd5b600084013567ffffffffffffffff811115610c9257600080fd5b610c9e86828701610b12565b935050602084013567ffffffffffffffff811115610cbb57600080fd5b610cc786828701610b12565b9250506040610cd886828701610b66565b9150509250925092565b6000610cee8383610e50565b60408301905092915050565b6000610d068383611014565b905092915050565b6000610d1a83836111c2565b60208301905092915050565b6000610d3182611495565b610d3b818561152e565b9350610d468361143c565b8060005b83811015610d77578151610d5e8882610ce2565b9750610d69836114ed565b925050600181019050610d4a565b5085935050505092915050565b6000610d8f826114a0565b610d99818561153f565b935083602082028501610dab8561144c565b8060005b85811015610de75784840389528151610dc88582610cfa565b9450610dd3836114fa565b925060208a01995050600181019050610daf565b50829750879550505050505092915050565b610e02816114b6565b610e0c8184611550565b9250610e1782611466565b8060005b83811015610e48578151610e2f8782610d0e565b9650610e3a83611514565b925050600181019050610e1b565b505050505050565b610e59816114ab565b610e63818461155b565b9250610e6e8261145c565b8060005b83811015610e9f578151610e868782610d0e565b9650610e9183611507565b925050600181019050610e72565b505050505050565b6000610eb2826114c1565b610ebc8185611566565b9350610ec783611470565b8060005b83811015610ef8578151610edf8882610d0e565b9750610eea83611521565b925050600181019050610ecb565b5085935050505092915050565b610f0e816115b5565b82525050565b6000610f1f826114cc565b610f298185611577565b9350610f398185602086016115da565b610f428161160d565b840191505092915050565b600081546001811660008114610f6a5760018114610f8f57610fd3565b607f6002830416610f7b8187611588565b955060ff1983168652808601935050610fd3565b60028204610f9d8187611588565b9550610fa885611480565b60005b82811015610fca57815481890152600182019150602081019050610fab565b82880195505050505b505092915050565b6000610fe6826114e2565b610ff081856115a4565b93506110008185602086016115da565b6110098161160d565b840191505092915050565b600061101f826114d7565b6110298185611593565b93506110398185602086016115da565b6110428161160d565b840191505092915050565b600061105a601b836115a4565b91507f596f7520686176656e27742070617920746865206177617264732100000000006000830152602082019050919050565b600061109a6025836115a4565b91507f54686572652069736e277420656e6f756768206e756d626572206f6620616e7360008301527f77657273210000000000000000000000000000000000000000000000000000006020830152604082019050919050565b6000611100601b836115a4565b91507f4f6e6c79207265717565737465722063616e20646f20746861742100000000006000830152602082019050919050565b60006111406010836115a4565b91507f4d757374206861766520617761726421000000000000000000000000000000006000830152602082019050919050565b6000611180601f836115a4565b91507f596f75206861766520636f6c6c65637465642074686520616e737765727321006000830152602082019050919050565b6111bc816115c1565b82525050565b6111cb816115c1565b82525050565b60006111dd8284610f4d565b915081905092915050565b600060c08201905081810360008301526112028188610d26565b905081810360208301526112168187610f14565b905061122560408301866111b3565b6112326060830185610df9565b81810360a08301526112448184610ea7565b90509695505050505050565b6000602082019050818103600083015261126a8184610d84565b905092915050565b60006020820190506112876000830184610f05565b92915050565b600060208201905081810360008301526112a78184610fdb565b905092915050565b600060208201905081810360008301526112c88161104d565b9050919050565b600060208201905081810360008301526112e88161108d565b9050919050565b60006020820190508181036000830152611308816110f3565b9050919050565b6000602082019050818103600083015261132881611133565b9050919050565b6000602082019050818103600083015261134881611173565b9050919050565b6000604051905081810181811067ffffffffffffffff8211171561137257600080fd5b8060405250919050565b600067ffffffffffffffff82111561139357600080fd5b602082029050602081019050919050565b600067ffffffffffffffff8211156113bb57600080fd5b602082029050919050565b600067ffffffffffffffff8211156113dd57600080fd5b602082029050919050565b600067ffffffffffffffff8211156113ff57600080fd5b602082029050602081019050919050565b600067ffffffffffffffff82111561142757600080fd5b601f19601f8301169050602081019050919050565b6000819050602082019050919050565b6000819050602082019050919050565b6000819050919050565b6000819050919050565b6000819050602082019050919050565b60008190508160005260206000209050919050565b600081519050919050565b600081519050919050565b600060029050919050565b600060029050919050565b600081519050919050565b600081519050919050565b600081519050919050565b600081519050919050565b6000602082019050919050565b6000602082019050919050565b6000602082019050919050565b6000602082019050919050565b6000602082019050919050565b600082825260208201905092915050565b600082825260208201905092915050565b600081905092915050565b600081905092915050565b600082825260208201905092915050565b600082825260208201905092915050565b600081905092915050565b600082825260208201905092915050565b600082825260208201905092915050565b60008115159050919050565b6000819050919050565b82818337600083830152505050565b60005b838110156115f85780820151818401526020810190506115dd565b83811115611607576000848401525b50505050565b6000601f19601f8301169050919050565b611627816115b5565b811461163257600080fd5b50565b61163e816115c1565b811461164957600080fd5b5056fea365627a7a723158203eb7418ca8d1f290694b18a7660d0d7b493d2a61eff54af89f4772a5d0ad8b786c6578706572696d656e74616cf564736f6c63430005110040",
  "source": "pragma solidity >=0.5.0 <0.6.0;\r\npragma experimental ABIEncoderV2;\r\nimport \"./Register.sol\";\r\nimport \"./LSAG.sol\";\r\n\r\ncontract Task{\r\n    address payable[] workers;   // 记录workers，方便转账\r\n    address requester;  // 记录 requester\r\n    string title;   // 任务标题\r\n    string descriptionOfTask;    // 任务描述\r\n    mapping(address => string) answerList;  // 答案列表\r\n    string[] list;\r\n    uint answerCount;   // 已完成答案数\r\n    uint award;    // 酬金\r\n    uint numberOfWorkersNeeded;   // 需要完成的工人数\r\n    bool finished;  //requester是否已经获取答案\r\n\r\n    modifier onlyRequester {    // 创建限定符\r\n        require(isRequester(), \"Only requester can do that!\");\r\n        _;\r\n    }\r\n\r\n    constructor() public {\r\n        title = \"default\";\r\n        descriptionOfTask = \"default\";\r\n        answerCount = 0;\r\n        award = 0;\r\n        numberOfWorkersNeeded = 0;\r\n    }\r\n\r\n    function addQuestion(string memory _title, string memory _descriptionOfTask, uint _numberOfWorkersNeeded) payable public {\r\n        require(msg.value > 0 ether, \"Must have award!\"); // 必须预存酬金\r\n        requester = msg.sender;\r\n        title = _title;\r\n        descriptionOfTask = _descriptionOfTask;\r\n        numberOfWorkersNeeded = _numberOfWorkersNeeded;\r\n        award = msg.value;\r\n    }\r\n\r\n    function getTitle() public returns(string memory) {\r\n        return title;\r\n    }\r\n\r\n    function ifAnswered() public returns(bool){\r\n        if (keccak256(bytes(answerList[msg.sender]))  == keccak256(bytes(\"\")))\r\n            return true;\r\n        return false;\r\n    }\r\n\r\n    // 回答问题\r\n    function answerQuestion(\r\n        uint256[2][] memory _publicKeys,\r\n        string memory answer,\r\n        uint256 c0,\r\n        uint256[2] memory keyImage,\r\n        uint256[] memory s\r\n    ) public{\r\n        bytes memory message = bytes(answer);\r\n        uint256[2][] memory publicKeys;\r\n        publicKeys = _publicKeys;\r\n        bool isVerified = LSAG.verify(\r\n            publicKeys,\r\n            message,\r\n            c0,\r\n            keyImage,\r\n            s\r\n        );\r\n        //require(isVerified == true, \"The user hasn't registed, or the user has submitted an answer!\");\r\n        answerList[msg.sender] = answer;\r\n        list.push(answer);\r\n        workers.push(msg.sender);\r\n        answerCount++;\r\n    }\r\n\r\n    function payAward() onlyRequester public {\r\n        require(finished == false, \"You have collected the answers!\");\r\n        require(workers.length >= numberOfWorkersNeeded, \"There isn't enough number of answers!\");\r\n        finished = true;\r\n        uint unitAward = award / workers.length;\r\n        for (uint i = 0; i < workers.length; i++) {\r\n            workers[i].transfer(unitAward);\r\n        }\r\n    }\r\n\r\n    // 收集答案\r\n    function collectAnswers() onlyRequester public returns(string[] memory) {\r\n        require(finished == true, \"You haven't pay the awards!\");\r\n        return list;\r\n    }\r\n\r\n    function isRequester() view private returns(bool) { //  对外不可见\r\n        return msg.sender == requester;\r\n    }\r\n}\r\n",
  "sourcePath": "E:\\RingTest\\contracts\\Task.sol",
  "compiler": {
    "name": "solc",
    "version": "0.5.17+commit.d19bba13.Emscripten.clang"
  },
  "schemaVersion": "3.4.4",
  "updatedAt": "2022-01-04T06:33:39.905Z",
  "devdoc": {
    "methods": {}
  },
  "userdoc": {
    "methods": {}
  }
}